{"abi":[{"type":"constructor","inputs":[{"name":"_merkleRoot","type":"bytes32","internalType":"bytes32"}],"stateMutability":"nonpayable"},{"type":"function","name":"GENERAL_MEMBERS_ELECTED","inputs":[],"outputs":[{"name":"","type":"uint256","internalType":"uint256"}],"stateMutability":"view"},{"type":"function","name":"admin","inputs":[],"outputs":[{"name":"","type":"address","internalType":"address"}],"stateMutability":"view"},{"type":"function","name":"candidateCount","inputs":[],"outputs":[{"name":"","type":"uint256","internalType":"uint256"}],"stateMutability":"view"},{"type":"function","name":"candidateRegisteredInElection","inputs":[{"name":"","type":"address","internalType":"address"}],"outputs":[{"name":"","type":"uint256","internalType":"uint256"}],"stateMutability":"view"},{"type":"function","name":"candidates","inputs":[{"name":"","type":"uint256","internalType":"uint256"},{"name":"","type":"uint256","internalType":"uint256"}],"outputs":[{"name":"id","type":"uint256","internalType":"uint256"},{"name":"name","type":"string","internalType":"string"},{"name":"studentId","type":"string","internalType":"string"},{"name":"year","type":"uint8","internalType":"uint8"},{"name":"isFemale","type":"bool","internalType":"bool"},{"name":"imageCID","type":"string","internalType":"string"},{"name":"position","type":"uint8","internalType":"enum Election3.Position"},{"name":"voteCount","type":"uint256","internalType":"uint256"},{"name":"exists","type":"bool","internalType":"bool"}],"stateMutability":"view"},{"type":"function","name":"castVote","inputs":[{"name":"_presidentId","type":"uint256","internalType":"uint256"},{"name":"_secretaryId","type":"uint256","internalType":"uint256"},{"name":"_gmIds","type":"uint256[]","internalType":"uint256[]"},{"name":"_proof","type":"bytes32[]","internalType":"bytes32[]"}],"outputs":[],"stateMutability":"nonpayable"},{"type":"function","name":"currentElectionId","inputs":[],"outputs":[{"name":"","type":"uint256","internalType":"uint256"}],"stateMutability":"view"},{"type":"function","name":"electionCandidateCount","inputs":[{"name":"","type":"uint256","internalType":"uint256"}],"outputs":[{"name":"","type":"uint256","internalType":"uint256"}],"stateMutability":"view"},{"type":"function","name":"electionHistory","inputs":[{"name":"","type":"uint256","internalType":"uint256"}],"outputs":[{"name":"presidentWinnerId","type":"uint256","internalType":"uint256"},{"name":"secretaryWinnerId","type":"uint256","internalType":"uint256"},{"name":"totalCandidates","type":"uint256","internalType":"uint256"},{"name":"timestamp","type":"uint256","internalType":"uint256"}],"stateMutability":"view"},{"type":"function","name":"endElection","inputs":[],"outputs":[],"stateMutability":"nonpayable"},{"type":"function","name":"getCandidate","inputs":[{"name":"_id","type":"uint256","internalType":"uint256"}],"outputs":[{"name":"","type":"tuple","internalType":"struct Election3.Candidate","components":[{"name":"id","type":"uint256","internalType":"uint256"},{"name":"name","type":"string","internalType":"string"},{"name":"studentId","type":"string","internalType":"string"},{"name":"year","type":"uint8","internalType":"uint8"},{"name":"isFemale","type":"bool","internalType":"bool"},{"name":"imageCID","type":"string","internalType":"string"},{"name":"position","type":"uint8","internalType":"enum Election3.Position"},{"name":"voteCount","type":"uint256","internalType":"uint256"},{"name":"exists","type":"bool","internalType":"bool"}]}],"stateMutability":"view"},{"type":"function","name":"getElectionResult","inputs":[{"name":"_index","type":"uint256","internalType":"uint256"}],"outputs":[{"name":"","type":"tuple","internalType":"struct Election3.ElectionResult","components":[{"name":"presidentWinnerId","type":"uint256","internalType":"uint256"},{"name":"secretaryWinnerId","type":"uint256","internalType":"uint256"},{"name":"generalMemberWinnerIds","type":"uint256[5]","internalType":"uint256[5]"},{"name":"totalCandidates","type":"uint256","internalType":"uint256"},{"name":"timestamp","type":"uint256","internalType":"uint256"}]}],"stateMutability":"view"},{"type":"function","name":"getHistoricalCandidate","inputs":[{"name":"_electionId","type":"uint256","internalType":"uint256"},{"name":"_candidateId","type":"uint256","internalType":"uint256"}],"outputs":[{"name":"","type":"tuple","internalType":"struct Election3.Candidate","components":[{"name":"id","type":"uint256","internalType":"uint256"},{"name":"name","type":"string","internalType":"string"},{"name":"studentId","type":"string","internalType":"string"},{"name":"year","type":"uint8","internalType":"uint8"},{"name":"isFemale","type":"bool","internalType":"bool"},{"name":"imageCID","type":"string","internalType":"string"},{"name":"position","type":"uint8","internalType":"enum Election3.Position"},{"name":"voteCount","type":"uint256","internalType":"uint256"},{"name":"exists","type":"bool","internalType":"bool"}]}],"stateMutability":"view"},{"type":"function","name":"getPhase","inputs":[],"outputs":[{"name":"","type":"uint8","internalType":"enum Election3.Phase"}],"stateMutability":"view"},{"type":"function","name":"hasVoted","inputs":[{"name":"_voter","type":"address","internalType":"address"}],"outputs":[{"name":"","type":"bool","internalType":"bool"}],"stateMutability":"view"},{"type":"function","name":"historyCount","inputs":[],"outputs":[{"name":"","type":"uint256","internalType":"uint256"}],"stateMutability":"view"},{"type":"function","name":"identityMerkleRoot","inputs":[],"outputs":[{"name":"","type":"bytes32","internalType":"bytes32"}],"stateMutability":"view"},{"type":"function","name":"phase","inputs":[],"outputs":[{"name":"","type":"uint8","internalType":"enum Election3.Phase"}],"stateMutability":"view"},{"type":"function","name":"regCodeMerkleRoot","inputs":[],"outputs":[{"name":"","type":"bytes32","internalType":"bytes32"}],"stateMutability":"view"},{"type":"function","name":"registerCandidate","inputs":[{"name":"_guid","type":"string","internalType":"string"},{"name":"_name","type":"string","internalType":"string"},{"name":"_year","type":"uint8","internalType":"uint8"},{"name":"_isFemale","type":"bool","internalType":"bool"},{"name":"_imageCID","type":"string","internalType":"string"},{"name":"_position","type":"uint8","internalType":"enum Election3.Position"},{"name":"_proof","type":"bytes32[]","internalType":"bytes32[]"}],"outputs":[],"stateMutability":"nonpayable"},{"type":"function","name":"registrationEnd","inputs":[],"outputs":[{"name":"","type":"uint256","internalType":"uint256"}],"stateMutability":"view"},{"type":"function","name":"setIdentityMerkleRoot","inputs":[{"name":"_root","type":"bytes32","internalType":"bytes32"}],"outputs":[],"stateMutability":"nonpayable"},{"type":"function","name":"setMerkleRoot","inputs":[{"name":"_merkleRoot","type":"bytes32","internalType":"bytes32"}],"outputs":[],"stateMutability":"nonpayable"},{"type":"function","name":"setRegCodeMerkleRoot","inputs":[{"name":"_root","type":"bytes32","internalType":"bytes32"}],"outputs":[],"stateMutability":"nonpayable"},{"type":"function","name":"startNewElection","inputs":[],"outputs":[],"stateMutability":"nonpayable"},{"type":"function","name":"startRegistration","inputs":[{"name":"_end","type":"uint256","internalType":"uint256"}],"outputs":[],"stateMutability":"nonpayable"},{"type":"function","name":"startVoting","inputs":[{"name":"_end","type":"uint256","internalType":"uint256"}],"outputs":[],"stateMutability":"nonpayable"},{"type":"function","name":"verifyRegCode","inputs":[{"name":"studentId","type":"string","internalType":"string"},{"name":"code","type":"string","internalType":"string"},{"name":"proof","type":"bytes32[]","internalType":"bytes32[]"}],"outputs":[{"name":"","type":"bool","internalType":"bool"}],"stateMutability":"view"},{"type":"function","name":"vote","inputs":[{"name":"_candidateId","type":"uint256","internalType":"uint256"},{"name":"_proof","type":"bytes32[]","internalType":"bytes32[]"}],"outputs":[],"stateMutability":"nonpayable"},{"type":"function","name":"votedInElection","inputs":[{"name":"","type":"address","internalType":"address"}],"outputs":[{"name":"","type":"uint256","internalType":"uint256"}],"stateMutability":"view"},{"type":"function","name":"voterMerkleRoot","inputs":[],"outputs":[{"name":"","type":"bytes32","internalType":"bytes32"}],"stateMutability":"view"},{"type":"function","name":"votingEnd","inputs":[],"outputs":[{"name":"","type":"uint256","internalType":"uint256"}],"stateMutability":"view"},{"type":"event","name":"BallotCast","inputs":[{"name":"voter","type":"address","indexed":true,"internalType":"address"},{"name":"presId","type":"uint256","indexed":false,"internalType":"uint256"},{"name":"secId","type":"uint256","indexed":false,"internalType":"uint256"},{"name":"gmIds","type":"uint256[]","indexed":false,"internalType":"uint256[]"}],"anonymous":false},{"type":"event","name":"CandidateRegistered","inputs":[{"name":"id","type":"uint256","indexed":true,"internalType":"uint256"},{"name":"candidate","type":"address","indexed":true,"internalType":"address"},{"name":"name","type":"string","indexed":false,"internalType":"string"},{"name":"position","type":"uint8","indexed":false,"internalType":"enum Election3.Position"},{"name":"imageCID","type":"string","indexed":false,"internalType":"string"}],"anonymous":false},{"type":"event","name":"IdentityMerkleRootUpdated","inputs":[{"name":"newRoot","type":"bytes32","indexed":false,"internalType":"bytes32"}],"anonymous":false},{"type":"event","name":"MerkleRootUpdated","inputs":[{"name":"newRoot","type":"bytes32","indexed":false,"internalType":"bytes32"}],"anonymous":false},{"type":"event","name":"NewElectionStarted","inputs":[{"name":"electionId","type":"uint256","indexed":true,"internalType":"uint256"}],"anonymous":false},{"type":"event","name":"PhaseChanged","inputs":[{"name":"newPhase","type":"uint8","indexed":false,"internalType":"enum Election3.Phase"}],"anonymous":false},{"type":"event","name":"RegCodeMerkleRootUpdated","inputs":[{"name":"newRoot","type":"bytes32","indexed":false,"internalType":"bytes32"}],"anonymous":false},{"type":"event","name":"VoteCast","inputs":[{"name":"voter","type":"address","indexed":true,"internalType":"address"},{"name":"candidateId","type":"uint256","indexed":false,"internalType":"uint256"}],"anonymous":false}],"bytecode":{"object":"0x608060405234801561000f575f5ffd5b50604051615436380380615436833981810160405281019061003191906100e5565b335f5f6101000a81548173ffffffffffffffffffffffffffffffffffffffff021916908373ffffffffffffffffffffffffffffffffffffffff1602179055508060048190555060016003819055505f5f60146101000a81548160ff021916908360038111156100a3576100a2610110565b5b02179055505061013d565b5f5ffd5b5f819050919050565b6100c4816100b2565b81146100ce575f5ffd5b50565b5f815190506100df816100bb565b92915050565b5f602082840312156100fa576100f96100ae565b5b5f610107848285016100d1565b91505092915050565b7f4e487b71000000000000000000000000000000000000000000000000000000005f52602160045260245ffd5b6152ec8061014a5f395ff3fe608060405234801561000f575f5ffd5b50600436106101ee575f3560e01c8063797dd1f21161010d578063acf46e82116100a0578063d2cd0a751161006f578063d2cd0a75146105c3578063eced0280146105e1578063f851a440146105ff578063fd27419b1461061d576101ee565b8063acf46e821461053d578063ae4924dd14610559578063b1c9fe6e14610575578063c27a58aa14610593576101ee565b80638cb1b354116100dc5780638cb1b354146104c557806398ecf2a0146104e35780639e225d8414610501578063a9a981a31461051f576101ee565b8063797dd1f2146104235780637cb64759146104535780637de142421461046f57806385a38635146104a7576101ee565b806335da42711161018557806350e69ee51161015457806350e69ee5146103b157806358e930c8146103e157806359f78468146103fd5780636e38d03214610407576101ee565b806335da42711461033a5780633a9c9ffc1461036d5780633d2f5bda1461038b57806347f33fb5146103a7576101ee565b806323fc4b36116101c157806323fc4b36146102a05780632a69fb46146102d05780632ed1f9b5146102ee57806335b8e8201461030a576101ee565b806309eef43e146101f257806313446a751461022257806315e36dff14610240578063185c7db114610270575b5f5ffd5b61020c600480360381019061020791906133af565b610639565b60405161021991906133f4565b60405180910390f35b61022a610683565b6040516102379190613425565b60405180910390f35b61025a60048036038101906102559190613468565b610689565b6040516102679190613425565b60405180910390f35b61028a60048036038101906102859190613549565b61069e565b60405161029791906133f4565b60405180910390f35b6102ba60048036038101906102b59190613468565b610729565b6040516102c79190613706565b60405180910390f35b6102d86107c0565b6040516102e59190613738565b60405180910390f35b61030860048036038101906103039190613468565b6107c6565b005b610324600480360381019061031f9190613468565b6109a5565b604051610331919061392e565b60405180910390f35b610354600480360381019061034f9190613468565b610c30565b604051610364949392919061394e565b60405180910390f35b610375610c5c565b6040516103829190613425565b60405180910390f35b6103a560048036038101906103a09190613468565b610c62565b005b6103af610e58565b005b6103cb60048036038101906103c69190613991565b6112a3565b6040516103d8919061392e565b60405180910390f35b6103fb60048036038101906103f69190613b6e565b61152d565b005b610405611a65565b005b610421600480360381019061041c9190613ca9565b611c11565b005b61043d600480360381019061043891906133af565b611d56565b60405161044a9190613425565b60405180910390f35b61046d60048036038101906104689190613ca9565b611d6b565b005b61048960048036038101906104849190613991565b611eb0565b60405161049e99989796959493929190613d3a565b60405180910390f35b6104af6120c8565b6040516104bc9190613425565b60405180910390f35b6104cd6120ce565b6040516104da9190613738565b60405180910390f35b6104eb6120d4565b6040516104f89190613425565b60405180910390f35b6105096120da565b6040516105169190613425565b60405180910390f35b6105276120df565b6040516105349190613425565b60405180910390f35b61055760048036038101906105529190613e2f565b6120f9565b005b610573600480360381019061056e9190613ca9565b61289f565b005b61057d6129e4565b60405161058a9190613f18565b60405180910390f35b6105ad60048036038101906105a891906133af565b6129f6565b6040516105ba9190613425565b60405180910390f35b6105cb612a0b565b6040516105d89190613738565b60405180910390f35b6105e9612a11565b6040516105f69190613f18565b60405180910390f35b610607612a26565b6040516106149190613f40565b60405180910390f35b61063760048036038101906106329190613f59565b612a4a565b005b5f60035460095f8473ffffffffffffffffffffffffffffffffffffffff1673ffffffffffffffffffffffffffffffffffffffff1681526020019081526020015f2054149050919050565b60015481565b6007602052805f5260405f205f915090505481565b5f5f878787876040516020016106b79493929190613fe4565b60405160208183030381529060405280519060200120905061071c8484808060200260200160405190810160405280939291908181526020018383602002808284375f81840152601f19601f8201169050808301925050505050505060065483612d80565b9150509695505050505050565b610731613292565b600b5f8381526020019081526020015f206040518060a00160405290815f8201548152602001600182015481526020016002820160058060200260405190810160405280929190826005801561079c576020028201915b815481526020019060010190808311610788575b50505050508152602001600782015481526020016008820154815250509050919050565b60045481565b5f5f9054906101000a900473ffffffffffffffffffffffffffffffffffffffff1673ffffffffffffffffffffffffffffffffffffffff163373ffffffffffffffffffffffffffffffffffffffff1614610854576040517f08c379a000000000000000000000000000000000000000000000000000000000815260040161084b90614055565b60405180910390fd5b5f6003811115610867576108666137eb565b5b5f60149054906101000a900460ff166003811115610888576108876137eb565b5b146108c8576040517f08c379a00000000000000000000000000000000000000000000000000000000081526004016108bf906140bd565b60405180910390fd5b42811161090a576040517f08c379a000000000000000000000000000000000000000000000000000000000815260040161090190614125565b60405180910390fd5b6003547f55c3cae3ec819b66218c64911b87eb1e29c1e3ce9f6d1f4a30b463db13e9090960405160405180910390a260015f60146101000a81548160ff0219169083600381111561095e5761095d6137eb565b5b0217905550806001819055507fa6dcc92f45df25789d5639b7a0c97ba1edf3bb1c0b5dd3376fd96a0db87c4642600160405161099a9190613f18565b60405180910390a150565b6109ad6132c3565b60085f60035481526020019081526020015f205f8381526020019081526020015f20604051806101200160405290815f82015481526020016001820180546109f490614170565b80601f0160208091040260200160405190810160405280929190818152602001828054610a2090614170565b8015610a6b5780601f10610a4257610100808354040283529160200191610a6b565b820191905f5260205f20905b815481529060010190602001808311610a4e57829003601f168201915b50505050508152602001600282018054610a8490614170565b80601f0160208091040260200160405190810160405280929190818152602001828054610ab090614170565b8015610afb5780601f10610ad257610100808354040283529160200191610afb565b820191905f5260205f20905b815481529060010190602001808311610ade57829003601f168201915b50505050508152602001600382015f9054906101000a900460ff1660ff1660ff1681526020016003820160019054906101000a900460ff16151515158152602001600482018054610b4b90614170565b80601f0160208091040260200160405190810160405280929190818152602001828054610b7790614170565b8015610bc25780601f10610b9957610100808354040283529160200191610bc2565b820191905f5260205f20905b815481529060010190602001808311610ba557829003601f168201915b50505050508152602001600582015f9054906101000a900460ff166002811115610bef57610bee6137eb565b5b6002811115610c0157610c006137eb565b5b815260200160068201548152602001600782015f9054906101000a900460ff1615151515815250509050919050565b600b602052805f5260405f205f91509050805f0154908060010154908060070154908060080154905084565b600c5481565b5f5f9054906101000a900473ffffffffffffffffffffffffffffffffffffffff1673ffffffffffffffffffffffffffffffffffffffff163373ffffffffffffffffffffffffffffffffffffffff1614610cf0576040517f08c379a0000000000000000000000000000000000000000000000000000000008152600401610ce790614055565b60405180910390fd5b60016003811115610d0457610d036137eb565b5b5f60149054906101000a900460ff166003811115610d2557610d246137eb565b5b14610d65576040517f08c379a0000000000000000000000000000000000000000000000000000000008152600401610d5c906141ea565b60405180910390fd5b600154421015610daa576040517f08c379a0000000000000000000000000000000000000000000000000000000008152600401610da190614252565b60405180910390fd5b428111610dec576040517f08c379a0000000000000000000000000000000000000000000000000000000008152600401610de390614125565b60405180910390fd5b60025f60146101000a81548160ff02191690836003811115610e1157610e106137eb565b5b0217905550806002819055507fa6dcc92f45df25789d5639b7a0c97ba1edf3bb1c0b5dd3376fd96a0db87c46426002604051610e4d9190613f18565b60405180910390a150565b5f5f9054906101000a900473ffffffffffffffffffffffffffffffffffffffff1673ffffffffffffffffffffffffffffffffffffffff163373ffffffffffffffffffffffffffffffffffffffff1614610ee6576040517f08c379a0000000000000000000000000000000000000000000000000000000008152600401610edd90614055565b60405180910390fd5b6003806003811115610efb57610efa6137eb565b5b5f60149054906101000a900460ff166003811115610f1c57610f1b6137eb565b5b14610f5c576040517f08c379a0000000000000000000000000000000000000000000000000000000008152600401610f53906142ba565b60405180910390fd5b5f60075f60035481526020019081526020015f205411610fb1576040517f08c379a0000000000000000000000000000000000000000000000000000000008152600401610fa890614322565b60405180910390fd5b5f610fbb5f612d96565b90505f610fc86001612d96565b90505f5f5f60075f60035481526020019081526020015f205490505f600190505b8181116110f05760085f60035481526020019081526020015f205f8281526020019081526020015f206007015f9054906101000a900460ff168015611082575060028081111561103c5761103b6137eb565b5b60085f60035481526020019081526020015f205f8381526020019081526020015f206005015f9054906101000a900460ff1660028111156110805761107f6137eb565b5b145b156110dd5783806110929061436d565b94505060085f60035481526020019081526020015f205f8281526020019081526020015f2060030160019054906101000a900460ff16156110dc5782806110d89061436d565b9350505b5b80806110e89061436d565b915050610fe9565b505f83111561118257600583101561113d576040517f08c379a0000000000000000000000000000000000000000000000000000000008152600401611134906143fe565b60405180910390fd5b6002821015611181576040517f08c379a00000000000000000000000000000000000000000000000000000000081526004016111789061448c565b60405180910390fd5b5b5f61118b612e9a565b90506040518060a0016040528087815260200186815260200182815260200183815260200142815250600b5f600c5481526020019081526020015f205f820151815f01556020820151816001015560408201518160020190816111ee919061465a565b506060820151816007015560808201518160080155905050600c5f8154809291906112189061436d565b919050555060035f81548092919061122f9061436d565b91905055505f5f60146101000a81548160ff02191690836003811115611258576112576137eb565b5b02179055505f6001819055505f6002819055506003547f55c3cae3ec819b66218c64911b87eb1e29c1e3ce9f6d1f4a30b463db13e9090960405160405180910390a250505050505050565b6112ab6132c3565b60085f8481526020019081526020015f205f8381526020019081526020015f20604051806101200160405290815f82015481526020016001820180546112f090614170565b80601f016020809104026020016040519081016040528092919081815260200182805461131c90614170565b80156113675780601f1061133e57610100808354040283529160200191611367565b820191905f5260205f20905b81548152906001019060200180831161134a57829003601f168201915b5050505050815260200160028201805461138090614170565b80601f01602080910402602001604051908101604052809291908181526020018280546113ac90614170565b80156113f75780601f106113ce576101008083540402835291602001916113f7565b820191905f5260205f20905b8154815290600101906020018083116113da57829003601f168201915b50505050508152602001600382015f9054906101000a900460ff1660ff1660ff1681526020016003820160019054906101000a900460ff1615151515815260200160048201805461144790614170565b80601f016020809104026020016040519081016040528092919081815260200182805461147390614170565b80156114be5780601f10611495576101008083540402835291602001916114be565b820191905f5260205f20905b8154815290600101906020018083116114a157829003601f168201915b50505050508152602001600582015f9054906101000a900460ff1660028111156114eb576114ea6137eb565b5b60028111156114fd576114fc6137eb565b5b815260200160068201548152602001600782015f9054906101000a900460ff161515151581525050905092915050565b6001806003811115611542576115416137eb565b5b5f60149054906101000a900460ff166003811115611563576115626137eb565b5b146115a3576040517f08c379a000000000000000000000000000000000000000000000000000000000815260040161159a906142ba565b60405180910390fd5b6001544211156115e8576040517f08c379a00000000000000000000000000000000000000000000000000000000081526004016115df90614728565b60405180910390fd5b600354600a5f3373ffffffffffffffffffffffffffffffffffffffff1673ffffffffffffffffffffffffffffffffffffffff1681526020019081526020015f205403611669576040517f08c379a000000000000000000000000000000000000000000000000000000000815260040161166090614790565b60405180910390fd5b5f33898989604051602001611681949392919061487f565b6040516020818303038152906040528051906020012090506116e68484808060200260200160405190810160405280939291908181526020018383602002808284375f81840152601f19601f8201169050808301925050505050505060055483612d80565b611725576040517f08c379a000000000000000000000000000000000000000000000000000000000815260040161171c90614912565b60405180910390fd5b5f6002811115611738576117376137eb565b5b85600281111561174b5761174a6137eb565b5b0361179b5760048860ff1614611796576040517f08c379a000000000000000000000000000000000000000000000000000000000815260040161178d9061497a565b60405180910390fd5b611820565b600160028111156117af576117ae6137eb565b5b8560028111156117c2576117c16137eb565b5b0361181f5760038860ff16101580156117df575060048860ff1611155b61181e576040517f08c379a000000000000000000000000000000000000000000000000000000000815260040161181590614a08565b60405180910390fd5b5b5b60075f60035481526020019081526020015f205f8154809291906118439061436d565b91905055505f60075f60035481526020019081526020015f205490506040518061012001604052808281526020018b81526020018c81526020018a60ff16815260200189151581526020018881526020018760028111156118a7576118a66137eb565b5b81526020015f81526020016001151581525060085f60035481526020019081526020015f205f8381526020019081526020015f205f820151815f015560208201518160010190816118f89190614af7565b50604082015181600201908161190e9190614af7565b506060820151816003015f6101000a81548160ff021916908360ff16021790555060808201518160030160016101000a81548160ff02191690831515021790555060a08201518160040190816119649190614af7565b5060c0820151816005015f6101000a81548160ff0219169083600281111561198f5761198e6137eb565b5b021790555060e08201518160060155610100820151816007015f6101000a81548160ff021916908315150217905550905050600354600a5f3373ffffffffffffffffffffffffffffffffffffffff1673ffffffffffffffffffffffffffffffffffffffff1681526020019081526020015f20819055503373ffffffffffffffffffffffffffffffffffffffff16817ff721a4e933ede8c3537b58861216e9cd34966866a9c0a3d102bd8294fd8c37f88c898b604051611a5093929190614bc6565b60405180910390a35050505050505050505050565b5f5f9054906101000a900473ffffffffffffffffffffffffffffffffffffffff1673ffffffffffffffffffffffffffffffffffffffff163373ffffffffffffffffffffffffffffffffffffffff1614611af3576040517f08c379a0000000000000000000000000000000000000000000000000000000008152600401611aea90614055565b60405180910390fd5b60026003811115611b0757611b066137eb565b5b5f60149054906101000a900460ff166003811115611b2857611b276137eb565b5b14611b68576040517f08c379a0000000000000000000000000000000000000000000000000000000008152600401611b5f90614c53565b60405180910390fd5b600254421015611bad576040517f08c379a0000000000000000000000000000000000000000000000000000000008152600401611ba490614cbb565b60405180910390fd5b60035f60146101000a81548160ff02191690836003811115611bd257611bd16137eb565b5b02179055507fa6dcc92f45df25789d5639b7a0c97ba1edf3bb1c0b5dd3376fd96a0db87c46426003604051611c079190613f18565b60405180910390a1565b5f5f9054906101000a900473ffffffffffffffffffffffffffffffffffffffff1673ffffffffffffffffffffffffffffffffffffffff163373ffffffffffffffffffffffffffffffffffffffff1614611c9f576040517f08c379a0000000000000000000000000000000000000000000000000000000008152600401611c9690614055565b60405180910390fd5b60016003811115611cb357611cb26137eb565b5b5f60149054906101000a900460ff166003811115611cd457611cd36137eb565b5b1115611d15576040517f08c379a0000000000000000000000000000000000000000000000000000000008152600401611d0c90614d23565b60405180910390fd5b806005819055507f152210672c2549e6214d76c4c341f316ffeefdc783b6845dbf1a3330ed3d120481604051611d4b9190613738565b60405180910390a150565b6009602052805f5260405f205f915090505481565b5f5f9054906101000a900473ffffffffffffffffffffffffffffffffffffffff1673ffffffffffffffffffffffffffffffffffffffff163373ffffffffffffffffffffffffffffffffffffffff1614611df9576040517f08c379a0000000000000000000000000000000000000000000000000000000008152600401611df090614055565b60405180910390fd5b60016003811115611e0d57611e0c6137eb565b5b5f60149054906101000a900460ff166003811115611e2e57611e2d6137eb565b5b1115611e6f576040517f08c379a0000000000000000000000000000000000000000000000000000000008152600401611e6690614d23565b60405180910390fd5b806004819055507f90004c04698bc3322499a575ed3752dd4abf33e0a7294c06a787a0fe01bea94181604051611ea59190613738565b60405180910390a150565b6008602052815f5260405f20602052805f5260405f205f9150915050805f015490806001018054611ee090614170565b80601f0160208091040260200160405190810160405280929190818152602001828054611f0c90614170565b8015611f575780601f10611f2e57610100808354040283529160200191611f57565b820191905f5260205f20905b815481529060010190602001808311611f3a57829003601f168201915b505050505090806002018054611f6c90614170565b80601f0160208091040260200160405190810160405280929190818152602001828054611f9890614170565b8015611fe35780601f10611fba57610100808354040283529160200191611fe3565b820191905f5260205f20905b815481529060010190602001808311611fc657829003601f168201915b505050505090806003015f9054906101000a900460ff16908060030160019054906101000a900460ff169080600401805461201d90614170565b80601f016020809104026020016040519081016040528092919081815260200182805461204990614170565b80156120945780601f1061206b57610100808354040283529160200191612094565b820191905f5260205f20905b81548152906001019060200180831161207757829003601f168201915b505050505090806005015f9054906101000a900460ff1690806006015490806007015f9054906101000a900460ff16905089565b60025481565b60055481565b60035481565b600581565b5f60075f60035481526020019081526020015f2054905090565b600280600381111561210e5761210d6137eb565b5b5f60149054906101000a900460ff16600381111561212f5761212e6137eb565b5b1461216f576040517f08c379a0000000000000000000000000000000000000000000000000000000008152600401612166906142ba565b60405180910390fd5b6002544211156121b4576040517f08c379a00000000000000000000000000000000000000000000000000000000081526004016121ab90614d8b565b60405180910390fd5b60035460095f3373ffffffffffffffffffffffffffffffffffffffff1673ffffffffffffffffffffffffffffffffffffffff1681526020019081526020015f205403612235576040517f08c379a000000000000000000000000000000000000000000000000000000000815260040161222c90614df3565b60405180910390fd5b5f336040516020016122479190614e11565b6040516020818303038152906040528051906020012090506122ac8484808060200260200160405190810160405280939291908181526020018383602002808284375f81840152601f19601f8201169050808301925050505050505060045483612d80565b6122eb576040517f08c379a00000000000000000000000000000000000000000000000000000000081526004016122e290614e75565b60405180910390fd5b5f5f89111561241f575f60085f60035481526020019081526020015f205f8b81526020019081526020015f209050806007015f9054906101000a900460ff16801561236957505f6002811115612344576123436137eb565b5b816005015f9054906101000a900460ff166002811115612367576123666137eb565b5b145b6123a8576040517f08c379a000000000000000000000000000000000000000000000000000000000815260040161239f90614edd565b60405180910390fd5b806006015f8154809291906123bc9061436d565b91905055503373ffffffffffffffffffffffffffffffffffffffff167fa36cc2bebb74db33e9f88110a07ef56e1b31b24b4c4f51b54b1664266e29f45b8b6040516124079190613425565b60405180910390a2818061241a9061436d565b925050505b5f881115612553575f60085f60035481526020019081526020015f205f8a81526020019081526020015f209050806007015f9054906101000a900460ff16801561249d575060016002811115612478576124776137eb565b5b816005015f9054906101000a900460ff16600281111561249b5761249a6137eb565b5b145b6124dc576040517f08c379a00000000000000000000000000000000000000000000000000000000081526004016124d390614f45565b60405180910390fd5b806006015f8154809291906124f09061436d565b91905055503373ffffffffffffffffffffffffffffffffffffffff167fa36cc2bebb74db33e9f88110a07ef56e1b31b24b4c4f51b54b1664266e29f45b8a60405161253b9190613425565b60405180910390a2818061254e9061436d565b925050505b600587879050111561259a576040517f08c379a000000000000000000000000000000000000000000000000000000000815260040161259190614fad565b60405180910390fd5b5f5f5f90505b88889050811015612768575f8989838181106125bf576125be614fcb565b5b9050602002013590505f811161260a576040517f08c379a000000000000000000000000000000000000000000000000000000000815260040161260190615042565b60405180910390fd5b5f60085f60035481526020019081526020015f205f8381526020019081526020015f209050806007015f9054906101000a900460ff16801561267f575060028081111561265a576126596137eb565b5b816005015f9054906101000a900460ff16600281111561267d5761267c6137eb565b5b145b6126be576040517f08c379a00000000000000000000000000000000000000000000000000000000081526004016126b5906150aa565b60405180910390fd5b8060030160019054906101000a900460ff16156126e45783806126e09061436d565b9450505b806006015f8154809291906126f89061436d565b91905055503373ffffffffffffffffffffffffffffffffffffffff167fa36cc2bebb74db33e9f88110a07ef56e1b31b24b4c4f51b54b1664266e29f45b836040516127439190613425565b60405180910390a284806127569061436d565b955050505080806001019150506125a0565b505f8888905011156127b95760028110156127b8576040517f08c379a00000000000000000000000000000000000000000000000000000000081526004016127af90615112565b60405180910390fd5b5b5f82116127fb576040517f08c379a00000000000000000000000000000000000000000000000000000000081526004016127f29061517a565b60405180910390fd5b60035460095f3373ffffffffffffffffffffffffffffffffffffffff1673ffffffffffffffffffffffffffffffffffffffff1681526020019081526020015f20819055503373ffffffffffffffffffffffffffffffffffffffff167fe3247bcd60937953a15c7fb3f0105170d7589290d64b69172eb927ca5e24bc8b8b8b8b8b60405161288b9493929190615210565b60405180910390a250505050505050505050565b5f5f9054906101000a900473ffffffffffffffffffffffffffffffffffffffff1673ffffffffffffffffffffffffffffffffffffffff163373ffffffffffffffffffffffffffffffffffffffff161461292d576040517f08c379a000000000000000000000000000000000000000000000000000000000815260040161292490614055565b60405180910390fd5b60016003811115612941576129406137eb565b5b5f60149054906101000a900460ff166003811115612962576129616137eb565b5b11156129a3576040517f08c379a000000000000000000000000000000000000000000000000000000000815260040161299a90614d23565b60405180910390fd5b806006819055507f97edeb41bfc357741272434936194103aa9f69d8c8f92536485fdb27d5c75724816040516129d99190613738565b60405180910390a150565b5f60149054906101000a900460ff1681565b600a602052805f5260405f205f915090505481565b60065481565b5f5f60149054906101000a900460ff16905090565b5f5f9054906101000a900473ffffffffffffffffffffffffffffffffffffffff1681565b6002806003811115612a5f57612a5e6137eb565b5b5f60149054906101000a900460ff166003811115612a8057612a7f6137eb565b5b14612ac0576040517f08c379a0000000000000000000000000000000000000000000000000000000008152600401612ab7906142ba565b60405180910390fd5b600254421115612b05576040517f08c379a0000000000000000000000000000000000000000000000000000000008152600401612afc90614d8b565b60405180910390fd5b60035460095f3373ffffffffffffffffffffffffffffffffffffffff1673ffffffffffffffffffffffffffffffffffffffff1681526020019081526020015f205403612b86576040517f08c379a0000000000000000000000000000000000000000000000000000000008152600401612b7d90614df3565b60405180910390fd5b60085f60035481526020019081526020015f205f8581526020019081526020015f206007015f9054906101000a900460ff16612bf7576040517f08c379a0000000000000000000000000000000000000000000000000000000008152600401612bee90615298565b60405180910390fd5b5f33604051602001612c099190614e11565b604051602081830303815290604052805190602001209050612c6e8484808060200260200160405190810160405280939291908181526020018383602002808284375f81840152601f19601f8201169050808301925050505050505060045483612d80565b612cad576040517f08c379a0000000000000000000000000000000000000000000000000000000008152600401612ca490614e75565b60405180910390fd5b60035460095f3373ffffffffffffffffffffffffffffffffffffffff1673ffffffffffffffffffffffffffffffffffffffff1681526020019081526020015f208190555060085f60035481526020019081526020015f205f8681526020019081526020015f206006015f815480929190612d269061436d565b91905055503373ffffffffffffffffffffffffffffffffffffffff167fa36cc2bebb74db33e9f88110a07ef56e1b31b24b4c4f51b54b1664266e29f45b86604051612d719190613425565b60405180910390a25050505050565b5f82612d8c8584613203565b1490509392505050565b5f5f5f60075f60035481526020019081526020015f205490505f600190505b818111612e92575f60085f60035481526020019081526020015f205f8381526020019081526020015f209050806007015f9054906101000a900460ff161580612e325750856002811115612e0c57612e0b6137eb565b5b816005015f9054906101000a900460ff166002811115612e2f57612e2e6137eb565b5b14155b15612e3d5750612e7f565b8381600601541180612e6a5750838160060154148015612e6957505f851480612e68575084815f0154105b5b5b15612e7d5780600601549350805f015494505b505b8080612e8a9061436d565b915050612db5565b505050919050565b612ea2613322565b5f5f60075f60035481526020019081526020015f205490505f5f90505b600281101561305c575f5f5f600190505b84811161301b575f60085f60035481526020019081526020015f205f8381526020019081526020015f209050806007015f9054906101000a900460ff161580612f4d5750600280811115612f2757612f266137eb565b5b816005015f9054906101000a900460ff166002811115612f4a57612f496137eb565b5b14155b80612f6757508060030160019054906101000a900460ff16155b15612f725750613008565b5f5f5f90505b88811015612fb757825f01548a8260058110612f9757612f96614fcb565b5b602002015103612faa5760019150612fb7565b8080600101915050612f78565b508015612fc5575050613008565b8382600601541180612ff25750838260060154148015612ff157505f851480612ff0575084825f0154105b5b5b156130055781600601549350815f015494505b50505b80806130139061436d565b915050612ed0565b505f821461304d57818686806130309061436d565b97506005811061304357613042614fcb565b5b6020020181815250505b50508080600101915050612ebf565b505f5f90505b60038110156131fd575f5f5f60075f60035481526020019081526020015f205490505f600190505b8181116131bb575f60085f60035481526020019081526020015f205f8381526020019081526020015f209050806007015f9054906101000a900460ff16158061310757506002808111156130e1576130e06137eb565b5b816005015f9054906101000a900460ff166002811115613104576131036137eb565b5b14155b1561311257506131a8565b5f5f5f90505b8981101561315757825f01548b826005811061313757613136614fcb565b5b60200201510361314a5760019150613157565b8080600101915050613118565b5080156131655750506131a8565b8482600601541180613192575084826006015414801561319157505f861480613190575085825f0154105b5b5b156131a55781600601549450815f015495505b50505b80806131b39061436d565b91505061308a565b505f83146131ed57828787806131d09061436d565b9850600581106131e3576131e2614fcb565b5b6020020181815250505b5050508080600101915050613062565b50505090565b5f5f8290505f5f90505b84518110156132495761323a8286838151811061322d5761322c614fcb565b5b6020026020010151613254565b9150808060010191505061320d565b508091505092915050565b5f81831061326b57613266828461327e565b613276565b613275838361327e565b5b905092915050565b5f825f528160205260405f20905092915050565b6040518060a001604052805f81526020015f81526020016132b1613322565b81526020015f81526020015f81525090565b6040518061012001604052805f815260200160608152602001606081526020015f60ff1681526020015f15158152602001606081526020015f600281111561330e5761330d6137eb565b5b81526020015f81526020015f151581525090565b6040518060a00160405280600590602082028036833780820191505090505090565b5f604051905090565b5f5ffd5b5f5ffd5b5f73ffffffffffffffffffffffffffffffffffffffff82169050919050565b5f61337e82613355565b9050919050565b61338e81613374565b8114613398575f5ffd5b50565b5f813590506133a981613385565b92915050565b5f602082840312156133c4576133c361334d565b5b5f6133d18482850161339b565b91505092915050565b5f8115159050919050565b6133ee816133da565b82525050565b5f6020820190506134075f8301846133e5565b92915050565b5f819050919050565b61341f8161340d565b82525050565b5f6020820190506134385f830184613416565b92915050565b6134478161340d565b8114613451575f5ffd5b50565b5f813590506134628161343e565b92915050565b5f6020828403121561347d5761347c61334d565b5b5f61348a84828501613454565b91505092915050565b5f5ffd5b5f5ffd5b5f5ffd5b5f5f83601f8401126134b4576134b3613493565b5b8235905067ffffffffffffffff8111156134d1576134d0613497565b5b6020830191508360018202830111156134ed576134ec61349b565b5b9250929050565b5f5f83601f84011261350957613508613493565b5b8235905067ffffffffffffffff81111561352657613525613497565b5b6020830191508360208202830111156135425761354161349b565b5b9250929050565b5f5f5f5f5f5f606087890312156135635761356261334d565b5b5f87013567ffffffffffffffff8111156135805761357f613351565b5b61358c89828a0161349f565b9650965050602087013567ffffffffffffffff8111156135af576135ae613351565b5b6135bb89828a0161349f565b9450945050604087013567ffffffffffffffff8111156135de576135dd613351565b5b6135ea89828a016134f4565b92509250509295509295509295565b6136028161340d565b82525050565b5f60059050919050565b5f81905092915050565b5f819050919050565b5f61363083836135f9565b60208301905092915050565b5f602082019050919050565b61365181613608565b61365b8184613612565b92506136668261361c565b805f5b8381101561369657815161367d8782613625565b96506136888361363c565b925050600181019050613669565b505050505050565b61012082015f8201516136b35f8501826135f9565b5060208201516136c660208501826135f9565b5060408201516136d96040850182613648565b5060608201516136ec60e08501826135f9565b5060808201516137006101008501826135f9565b50505050565b5f6101208201905061371a5f83018461369e565b92915050565b5f819050919050565b61373281613720565b82525050565b5f60208201905061374b5f830184613729565b92915050565b5f81519050919050565b5f82825260208201905092915050565b8281835e5f83830152505050565b5f601f19601f8301169050919050565b5f61379382613751565b61379d818561375b565b93506137ad81856020860161376b565b6137b681613779565b840191505092915050565b5f60ff82169050919050565b6137d6816137c1565b82525050565b6137e5816133da565b82525050565b7f4e487b71000000000000000000000000000000000000000000000000000000005f52602160045260245ffd5b60038110613829576138286137eb565b5b50565b5f81905061383982613818565b919050565b5f6138488261382c565b9050919050565b6138588161383e565b82525050565b5f61012083015f8301516138745f8601826135f9565b506020830151848203602086015261388c8282613789565b915050604083015184820360408601526138a68282613789565b91505060608301516138bb60608601826137cd565b5060808301516138ce60808601826137dc565b5060a083015184820360a08601526138e68282613789565b91505060c08301516138fb60c086018261384f565b5060e083015161390e60e08601826135f9565b506101008301516139236101008601826137dc565b508091505092915050565b5f6020820190508181035f830152613946818461385e565b905092915050565b5f6080820190506139615f830187613416565b61396e6020830186613416565b61397b6040830185613416565b6139886060830184613416565b95945050505050565b5f5f604083850312156139a7576139a661334d565b5b5f6139b485828601613454565b92505060206139c585828601613454565b9150509250929050565b5f5ffd5b7f4e487b71000000000000000000000000000000000000000000000000000000005f52604160045260245ffd5b613a0982613779565b810181811067ffffffffffffffff82111715613a2857613a276139d3565b5b80604052505050565b5f613a3a613344565b9050613a468282613a00565b919050565b5f67ffffffffffffffff821115613a6557613a646139d3565b5b613a6e82613779565b9050602081019050919050565b828183375f83830152505050565b5f613a9b613a9684613a4b565b613a31565b905082815260208101848484011115613ab757613ab66139cf565b5b613ac2848285613a7b565b509392505050565b5f82601f830112613ade57613add613493565b5b8135613aee848260208601613a89565b91505092915050565b613b00816137c1565b8114613b0a575f5ffd5b50565b5f81359050613b1b81613af7565b92915050565b613b2a816133da565b8114613b34575f5ffd5b50565b5f81359050613b4581613b21565b92915050565b60038110613b57575f5ffd5b50565b5f81359050613b6881613b4b565b92915050565b5f5f5f5f5f5f5f5f60e0898b031215613b8a57613b8961334d565b5b5f89013567ffffffffffffffff811115613ba757613ba6613351565b5b613bb38b828c01613aca565b985050602089013567ffffffffffffffff811115613bd457613bd3613351565b5b613be08b828c01613aca565b9750506040613bf18b828c01613b0d565b9650506060613c028b828c01613b37565b955050608089013567ffffffffffffffff811115613c2357613c22613351565b5b613c2f8b828c01613aca565b94505060a0613c408b828c01613b5a565b93505060c089013567ffffffffffffffff811115613c6157613c60613351565b5b613c6d8b828c016134f4565b92509250509295985092959890939650565b613c8881613720565b8114613c92575f5ffd5b50565b5f81359050613ca381613c7f565b92915050565b5f60208284031215613cbe57613cbd61334d565b5b5f613ccb84828501613c95565b91505092915050565b5f82825260208201905092915050565b5f613cee82613751565b613cf88185613cd4565b9350613d0881856020860161376b565b613d1181613779565b840191505092915050565b613d25816137c1565b82525050565b613d348161383e565b82525050565b5f61012082019050613d4e5f83018c613416565b8181036020830152613d60818b613ce4565b90508181036040830152613d74818a613ce4565b9050613d836060830189613d1c565b613d9060808301886133e5565b81810360a0830152613da28187613ce4565b9050613db160c0830186613d2b565b613dbe60e0830185613416565b613dcc6101008301846133e5565b9a9950505050505050505050565b5f5f83601f840112613def57613dee613493565b5b8235905067ffffffffffffffff811115613e0c57613e0b613497565b5b602083019150836020820283011115613e2857613e2761349b565b5b9250929050565b5f5f5f5f5f5f60808789031215613e4957613e4861334d565b5b5f613e5689828a01613454565b9650506020613e6789828a01613454565b955050604087013567ffffffffffffffff811115613e8857613e87613351565b5b613e9489828a01613dda565b9450945050606087013567ffffffffffffffff811115613eb757613eb6613351565b5b613ec389828a016134f4565b92509250509295509295509295565b60048110613ee357613ee26137eb565b5b50565b5f819050613ef382613ed2565b919050565b5f613f0282613ee6565b9050919050565b613f1281613ef8565b82525050565b5f602082019050613f2b5f830184613f09565b92915050565b613f3a81613374565b82525050565b5f602082019050613f535f830184613f31565b92915050565b5f5f5f60408486031215613f7057613f6f61334d565b5b5f613f7d86828701613454565b935050602084013567ffffffffffffffff811115613f9e57613f9d613351565b5b613faa868287016134f4565b92509250509250925092565b5f81905092915050565b5f613fcb8385613fb6565b9350613fd8838584613a7b565b82840190509392505050565b5f613ff0828688613fc0565b9150613ffd828486613fc0565b915081905095945050505050565b7f4e6f742061646d696e00000000000000000000000000000000000000000000005f82015250565b5f61403f600983613cd4565b915061404a8261400b565b602082019050919050565b5f6020820190508181035f83015261406c81614033565b9050919050565b7f4d757374207374617274206e657720656c656374696f6e2066697273740000005f82015250565b5f6140a7601d83613cd4565b91506140b282614073565b602082019050919050565b5f6020820190508181035f8301526140d48161409b565b9050919050565b7f456e64206d75737420626520696e2066757475726500000000000000000000005f82015250565b5f61410f601583613cd4565b915061411a826140db565b602082019050919050565b5f6020820190508181035f83015261413c81614103565b9050919050565b7f4e487b71000000000000000000000000000000000000000000000000000000005f52602260045260245ffd5b5f600282049050600182168061418757607f821691505b60208210810361419a57614199614143565b5b50919050565b7f4e6f7420726561647900000000000000000000000000000000000000000000005f82015250565b5f6141d4600983613cd4565b91506141df826141a0565b602082019050919050565b5f6020820190508181035f830152614201816141c8565b9050919050565b7f526567697374726174696f6e20706572696f64206e6f74206f766572000000005f82015250565b5f61423c601c83613cd4565b915061424782614208565b602082019050919050565b5f6020820190508181035f83015261426981614230565b9050919050565b7f57726f6e672070686173650000000000000000000000000000000000000000005f82015250565b5f6142a4600b83613cd4565b91506142af82614270565b602082019050919050565b5f6020820190508181035f8301526142d181614298565b9050919050565b7f4e6f2063616e64696461746573000000000000000000000000000000000000005f82015250565b5f61430c600d83613cd4565b9150614317826142d8565b602082019050919050565b5f6020820190508181035f83015261433981614300565b9050919050565b7f4e487b71000000000000000000000000000000000000000000000000000000005f52601160045260245ffd5b5f6143778261340d565b91507fffffffffffffffffffffffffffffffffffffffffffffffffffffffffffffffff82036143a9576143a8614340565b5b600182019050919050565b7f4e656564206174206c65617374203520474d2063616e646964617465730000005f82015250565b5f6143e8601d83613cd4565b91506143f3826143b4565b602082019050919050565b5f6020820190508181035f830152614415816143dc565b9050919050565b7f4e656564206174206c6561737420322066656d616c6520474d2063616e6469645f8201527f6174657300000000000000000000000000000000000000000000000000000000602082015250565b5f614476602483613cd4565b91506144818261441c565b604082019050919050565b5f6020820190508181035f8301526144a38161446a565b9050919050565b5f60059050919050565b5f8190506001806001038301049050919050565b5f819050919050565b5f82821b905092915050565b5f6008830261450c7fffffffffffffffffffffffffffffffffffffffffffffffffffffffffffffffff826144d1565b61451686836144d1565b95508019841693508086168417925050509392505050565b5f819050919050565b5f61455161454c6145478461340d565b61452e565b61340d565b9050919050565b5f819050919050565b61456a83614537565b61457e61457682614558565b8484546144dd565b825550505050565b5f5f905090565b614595614586565b6145a0818484614561565b505050565b5f5b828110156145c6576145bb5f82840161458d565b6001810190506145a7565b505050565b5f82821c905092915050565b8183101561460e576145e8826144b4565b6145f1846144b4565b6145fa836144c8565b818101614609838503826145a5565b505050505b505050565b6801000000000000000082111561462d5761462c6139d3565b5b614636816144aa565b6146418382846145d7565b505050565b5f614651825161340d565b80915050919050565b61466382613608565b67ffffffffffffffff81111561467c5761467b6139d3565b5b6146868183614613565b61468f8361361c565b614698836144c8565b600183045f5b818110156146d5575f6146b085614646565b6146b981614558565b809250602087019650505080828501555060018101905061469e565b50505050505050565b7f526567697374726174696f6e20656e64656400000000000000000000000000005f82015250565b5f614712601283613cd4565b915061471d826146de565b602082019050919050565b5f6020820190508181035f83015261473f81614706565b9050919050565b7f416c7265616479207265676973746572656400000000000000000000000000005f82015250565b5f61477a601283613cd4565b915061478582614746565b602082019050919050565b5f6020820190508181035f8301526147a78161476e565b9050919050565b5f8160601b9050919050565b5f6147c4826147ae565b9050919050565b5f6147d5826147ba565b9050919050565b6147ed6147e882613374565b6147cb565b82525050565b5f6147fd82613751565b6148078185613fb6565b935061481781856020860161376b565b80840191505092915050565b5f8160f81b9050919050565b5f61483982614823565b9050919050565b61485161484c826137c1565b61482f565b82525050565b5f6148618261482f565b9050919050565b614879614874826133da565b614857565b82525050565b5f61488a82876147dc565b60148201915061489a82866147f3565b91506148a68285614840565b6001820191506148b68284614868565b60018201915081905095945050505050565b7f4964656e74697479206e6f7420766572696669656400000000000000000000005f82015250565b5f6148fc601583613cd4565b9150614907826148c8565b602082019050919050565b5f6020820190508181035f830152614929816148f0565b9050919050565b7f507265736964656e74206d7573742062652034746820796561720000000000005f82015250565b5f614964601a83613cd4565b915061496f82614930565b602082019050919050565b5f6020820190508181035f83015261499181614958565b9050919050565b7f536563726574617279206d75737420626520337264206f7220347468207965615f8201527f7200000000000000000000000000000000000000000000000000000000000000602082015250565b5f6149f2602183613cd4565b91506149fd82614998565b604082019050919050565b5f6020820190508181035f830152614a1f816149e6565b9050919050565b5f819050815f5260205f209050919050565b5f6020601f8301049050919050565b5f5b82811015614a6857614a5d5f82840161458d565b600181019050614a49565b505050565b601f821115614abb5782821115614aba57614a8781614a26565b614a9083614a38565b614a9985614a38565b6020861015614aa6575f90505b808301614ab582840382614a47565b505050505b5b505050565b5f614acf5f19846008026145cb565b1980831691505092915050565b5f614ae78383614ac0565b9150826002028217905092915050565b614b0082613751565b67ffffffffffffffff811115614b1957614b186139d3565b5b614b238254614170565b614b2e828285614a6d565b5f60209050601f831160018114614b5f575f8415614b4d578287015190505b614b578582614adc565b865550614bbe565b601f198416614b6d86614a26565b5f5b82811015614b9457848901518255600182019150602085019450602081019050614b6f565b86831015614bb15784890151614bad601f891682614ac0565b8355505b6001600288020188555050505b505050505050565b5f6060820190508181035f830152614bde8186613ce4565b9050614bed6020830185613d2b565b8181036040830152614bff8184613ce4565b9050949350505050565b7f4e6f7420696e20766f74696e67000000000000000000000000000000000000005f82015250565b5f614c3d600d83613cd4565b9150614c4882614c09565b602082019050919050565b5f6020820190508181035f830152614c6a81614c31565b9050919050565b7f566f74696e6720706572696f64206e6f74206f766572000000000000000000005f82015250565b5f614ca5601683613cd4565b9150614cb082614c71565b602082019050919050565b5f6020820190508181035f830152614cd281614c99565b9050919050565b7f526f6f742066726f7a656e20647572696e6720766f74696e67000000000000005f82015250565b5f614d0d601983613cd4565b9150614d1882614cd9565b602082019050919050565b5f6020820190508181035f830152614d3a81614d01565b9050919050565b7f566f74696e6720656e64656400000000000000000000000000000000000000005f82015250565b5f614d75600c83613cd4565b9150614d8082614d41565b602082019050919050565b5f6020820190508181035f830152614da281614d69565b9050919050565b7f416c726561647920766f746564000000000000000000000000000000000000005f82015250565b5f614ddd600d83613cd4565b9150614de882614da9565b602082019050919050565b5f6020820190508181035f830152614e0a81614dd1565b9050919050565b5f614e1c82846147dc565b60148201915081905092915050565b7f4e6f7420656c696769626c6520766f74657200000000000000000000000000005f82015250565b5f614e5f601283613cd4565b9150614e6a82614e2b565b602082019050919050565b5f6020820190508181035f830152614e8c81614e53565b9050919050565b7f496e76616c696420707265736964656e740000000000000000000000000000005f82015250565b5f614ec7601183613cd4565b9150614ed282614e93565b602082019050919050565b5f6020820190508181035f830152614ef481614ebb565b9050919050565b7f496e76616c6964207365637265746172790000000000000000000000000000005f82015250565b5f614f2f601183613cd4565b9150614f3a82614efb565b602082019050919050565b5f6020820190508181035f830152614f5c81614f23565b9050919050565b7f546f6f206d616e7920474d20766f7465730000000000000000000000000000005f82015250565b5f614f97601183613cd4565b9150614fa282614f63565b602082019050919050565b5f6020820190508181035f830152614fc481614f8b565b9050919050565b7f4e487b71000000000000000000000000000000000000000000000000000000005f52603260045260245ffd5b7f496e76616c696420474d204944000000000000000000000000000000000000005f82015250565b5f61502c600d83613cd4565b915061503782614ff8565b602082019050919050565b5f6020820190508181035f83015261505981615020565b9050919050565b7f496e76616c696420474d000000000000000000000000000000000000000000005f82015250565b5f615094600a83613cd4565b915061509f82615060565b602082019050919050565b5f6020820190508181035f8301526150c181615088565b9050919050565b7f4e656564206174206c6561737420322066656d616c6520474d20766f746573005f82015250565b5f6150fc601f83613cd4565b9150615107826150c8565b602082019050919050565b5f6020820190508181035f830152615129816150f0565b9050919050565b7f4e6f2063616e646964617465732073656c6563746564000000000000000000005f82015250565b5f615164601683613cd4565b915061516f82615130565b602082019050919050565b5f6020820190508181035f83015261519181615158565b9050919050565b5f82825260208201905092915050565b5f5ffd5b82818337505050565b5f6151c08385615198565b93507f07ffffffffffffffffffffffffffffffffffffffffffffffffffffffffffffff8311156151f3576151f26151a8565b5b6020830292506152048385846151ac565b82840190509392505050565b5f6060820190506152235f830187613416565b6152306020830186613416565b81810360408301526152438184866151b5565b905095945050505050565b7f496e76616c69642063616e6469646174650000000000000000000000000000005f82015250565b5f615282601183613cd4565b915061528d8261524e565b602082019050919050565b5f6020820190508181035f8301526152af81615276565b905091905056fea2646970667358221220ff972e7fd5988ee5e6064a92de6c1ca3e2a2b17c1c49c9dbbe22ecd714c7bc3564736f6c63430008230033","linkReferences":{}},"methodIdentifiers":{"GENERAL_MEMBERS_ELECTED()":"9e225d84","admin()":"f851a440","candidateCount()":"a9a981a3","candidateRegisteredInElection(address)":"c27a58aa","candidates(uint256,uint256)":"7de14242","castVote(uint256,uint256,uint256[],bytes32[])":"acf46e82","currentElectionId()":"98ecf2a0","electionCandidateCount(uint256)":"15e36dff","electionHistory(uint256)":"35da4271","endElection()":"59f78468","getCandidate(uint256)":"35b8e820","getElectionResult(uint256)":"23fc4b36","getHistoricalCandidate(uint256,uint256)":"50e69ee5","getPhase()":"eced0280","hasVoted(address)":"09eef43e","historyCount()":"3a9c9ffc","identityMerkleRoot()":"8cb1b354","phase()":"b1c9fe6e","regCodeMerkleRoot()":"d2cd0a75","registerCandidate(string,string,uint8,bool,string,uint8,bytes32[])":"58e930c8","registrationEnd()":"13446a75","setIdentityMerkleRoot(bytes32)":"6e38d032","setMerkleRoot(bytes32)":"7cb64759","setRegCodeMerkleRoot(bytes32)":"ae4924dd","startNewElection()":"47f33fb5","startRegistration(uint256)":"2ed1f9b5","startVoting(uint256)":"3d2f5bda","verifyRegCode(string,string,bytes32[])":"185c7db1","vote(uint256,bytes32[])":"fd27419b","votedInElection(address)":"797dd1f2","voterMerkleRoot()":"2a69fb46","votingEnd()":"85a38635"},"id":23}