{"abi":[{"type":"constructor","inputs":[],"stateMutability":"nonpayable"},{"type":"function","name":"admin","inputs":[],"outputs":[{"name":"","type":"address","internalType":"address"}],"stateMutability":"view"},{"type":"function","name":"candidateCount","inputs":[],"outputs":[{"name":"","type":"uint256","internalType":"uint256"}],"stateMutability":"view"},{"type":"function","name":"candidates","inputs":[{"name":"","type":"uint256","internalType":"uint256"}],"outputs":[{"name":"id","type":"uint256","internalType":"uint256"},{"name":"name","type":"string","internalType":"string"},{"name":"studentId","type":"string","internalType":"string"},{"name":"year","type":"uint8","internalType":"uint8"},{"name":"isFemale","type":"bool","internalType":"bool"},{"name":"imageCID","type":"string","internalType":"string"},{"name":"position","type":"uint8","internalType":"enum Election.Position"},{"name":"voteCount","type":"uint256","internalType":"uint256"},{"name":"exists","type":"bool","internalType":"bool"}],"stateMutability":"view"},{"type":"function","name":"electionState","inputs":[],"outputs":[{"name":"","type":"uint8","internalType":"enum Election.ElectionState"}],"stateMutability":"view"},{"type":"function","name":"endElection","inputs":[],"outputs":[],"stateMutability":"nonpayable"},{"type":"function","name":"endTime","inputs":[],"outputs":[{"name":"","type":"uint256","internalType":"uint256"}],"stateMutability":"view"},{"type":"function","name":"generalMemberCount","inputs":[],"outputs":[{"name":"","type":"uint256","internalType":"uint256"}],"stateMutability":"view"},{"type":"function","name":"getCandidate","inputs":[{"name":"_id","type":"uint256","internalType":"uint256"}],"outputs":[{"name":"","type":"tuple","internalType":"struct Election.Candidate","components":[{"name":"id","type":"uint256","internalType":"uint256"},{"name":"name","type":"string","internalType":"string"},{"name":"studentId","type":"string","internalType":"string"},{"name":"year","type":"uint8","internalType":"uint8"},{"name":"isFemale","type":"bool","internalType":"bool"},{"name":"imageCID","type":"string","internalType":"string"},{"name":"position","type":"uint8","internalType":"enum Election.Position"},{"name":"voteCount","type":"uint256","internalType":"uint256"},{"name":"exists","type":"bool","internalType":"bool"}]}],"stateMutability":"view"},{"type":"function","name":"getVoter","inputs":[{"name":"_voter","type":"address","internalType":"address"}],"outputs":[{"name":"","type":"tuple","internalType":"struct Election.Voter","components":[{"name":"registered","type":"bool","internalType":"bool"},{"name":"verified","type":"bool","internalType":"bool"},{"name":"hasVoted","type":"bool","internalType":"bool"}]}],"stateMutability":"view"},{"type":"function","name":"presidentCount","inputs":[],"outputs":[{"name":"","type":"uint256","internalType":"uint256"}],"stateMutability":"view"},{"type":"function","name":"registerCandidate","inputs":[{"name":"_name","type":"string","internalType":"string"},{"name":"_studentId","type":"string","internalType":"string"},{"name":"_year","type":"uint8","internalType":"uint8"},{"name":"_isFemale","type":"bool","internalType":"bool"},{"name":"_imageCID","type":"string","internalType":"string"},{"name":"_position","type":"uint8","internalType":"enum Election.Position"}],"outputs":[],"stateMutability":"nonpayable"},{"type":"function","name":"registerVoter","inputs":[],"outputs":[],"stateMutability":"nonpayable"},{"type":"function","name":"secretaryCount","inputs":[],"outputs":[{"name":"","type":"uint256","internalType":"uint256"}],"stateMutability":"view"},{"type":"function","name":"startElection","inputs":[{"name":"durationMinutes","type":"uint256","internalType":"uint256"}],"outputs":[],"stateMutability":"nonpayable"},{"type":"function","name":"startRegistration","inputs":[],"outputs":[],"stateMutability":"nonpayable"},{"type":"function","name":"startTime","inputs":[],"outputs":[{"name":"","type":"uint256","internalType":"uint256"}],"stateMutability":"view"},{"type":"function","name":"verifyVoter","inputs":[{"name":"_voter","type":"address","internalType":"address"}],"outputs":[],"stateMutability":"nonpayable"},{"type":"function","name":"vote","inputs":[{"name":"_presidentId","type":"uint256","internalType":"uint256"},{"name":"_secretaryId","type":"uint256","internalType":"uint256"},{"name":"_memberIds","type":"uint256[]","internalType":"uint256[]"}],"outputs":[],"stateMutability":"nonpayable"},{"type":"function","name":"voters","inputs":[{"name":"","type":"address","internalType":"address"}],"outputs":[{"name":"registered","type":"bool","internalType":"bool"},{"name":"verified","type":"bool","internalType":"bool"},{"name":"hasVoted","type":"bool","internalType":"bool"}],"stateMutability":"view"},{"type":"event","name":"CandidateRegistered","inputs":[{"name":"id","type":"uint256","indexed":false,"internalType":"uint256"},{"name":"name","type":"string","indexed":false,"internalType":"string"},{"name":"position","type":"uint8","indexed":false,"internalType":"enum Election.Position"}],"anonymous":false},{"type":"event","name":"ElectionEnded","inputs":[],"anonymous":false},{"type":"event","name":"ElectionStarted","inputs":[{"name":"startTime","type":"uint256","indexed":false,"internalType":"uint256"},{"name":"endTime","type":"uint256","indexed":false,"internalType":"uint256"}],"anonymous":false},{"type":"event","name":"VoteCast","inputs":[{"name":"voter","type":"address","indexed":true,"internalType":"address"},{"name":"presidentId","type":"uint256","indexed":false,"internalType":"uint256"},{"name":"secretaryId","type":"uint256","indexed":false,"internalType":"uint256"},{"name":"memberIds","type":"uint256[]","indexed":false,"internalType":"uint256[]"}],"anonymous":false},{"type":"event","name":"VoteUpdated","inputs":[{"name":"candidateId","type":"uint256","indexed":false,"internalType":"uint256"},{"name":"newVoteCount","type":"uint256","indexed":false,"internalType":"uint256"}],"anonymous":false},{"type":"event","name":"VoterRegistered","inputs":[{"name":"voter","type":"address","indexed":false,"internalType":"address"}],"anonymous":false},{"type":"event","name":"VoterVerified","inputs":[{"name":"voter","type":"address","indexed":false,"internalType":"address"}],"anonymous":false}],"bytecode":{"object":"0x6080604052348015600e575f5ffd5b50335f5f6101000a81548173ffffffffffffffffffffffffffffffffffffffff021916908373ffffffffffffffffffffffffffffffffffffffff1602179055505f5f60146101000a81548160ff02191690836003811115606f57606e6078565b5b021790555060a5565b7f4e487b71000000000000000000000000000000000000000000000000000000005f52602160045260245ffd5b612f7b806100b25f395ff3fe608060405234801561000f575f5ffd5b506004361061011f575f3560e01c806378e97925116100ab578063d4f50f981161006f578063d4f50f98146102d9578063d971bd8614610309578063e1349bd714610327578063ecb617d914610343578063f851a4401461034d5761011f565b806378e97925146102315780638bfd63ba1461024f578063a3e152dc1461026b578063a3ec138d14610289578063a9a981a3146102bb5761011f565b80633197cbb6116100f25780633197cbb6146101855780633477ee2e146101a357806335b8e820146101db57806359f784681461020b5780636d32dc4b146102155761011f565b806309bd09501461012357806310b866951461013f578063144f0b3c146101495780632280043d14610167575b5f5ffd5b61013d60048036038101906101389190611b7a565b61036b565b005b610147610516565b005b6101516105d0565b60405161015e9190611bbd565b60405180910390f35b61016f6105d6565b60405161017c9190611c49565b60405180910390f35b61018d6105e8565b60405161019a9190611bbd565b60405180910390f35b6101bd60048036038101906101b89190611c8c565b6105ee565b6040516101d299989796959493929190611da2565b60405180910390f35b6101f560048036038101906101f09190611c8c565b6107fb565b6040516102029190611f96565b60405180910390f35b610213610a75565b005b61022f600480360381019061022a9190611c8c565b610b5b565b005b610239610c78565b6040516102469190611bbd565b60405180910390f35b61026960048036038101906102649190612159565b610c7e565b005b610273610fdc565b6040516102809190611bbd565b60405180910390f35b6102a3600480360381019061029e9190611b7a565b610fe2565b6040516102b293929190612236565b60405180910390f35b6102c361102c565b6040516102d09190611bbd565b60405180910390f35b6102f360048036038101906102ee9190611b7a565b611032565b60405161030091906122ab565b60405180910390f35b6103116110d6565b60405161031e9190611bbd565b60405180910390f35b610341600480360381019061033c9190612321565b6110dc565b005b61034b6118d5565b005b610355611a68565b60405161036291906123a1565b60405180910390f35b5f5f9054906101000a900473ffffffffffffffffffffffffffffffffffffffff1673ffffffffffffffffffffffffffffffffffffffff163373ffffffffffffffffffffffffffffffffffffffff16146103f9576040517f08c379a00000000000000000000000000000000000000000000000000000000081526004016103f090612404565b60405180910390fd5b60055f8273ffffffffffffffffffffffffffffffffffffffff1673ffffffffffffffffffffffffffffffffffffffff1681526020019081526020015f205f015f9054906101000a900460ff16610484576040517f08c379a000000000000000000000000000000000000000000000000000000000815260040161047b9061246c565b60405180910390fd5b600160055f8373ffffffffffffffffffffffffffffffffffffffff1673ffffffffffffffffffffffffffffffffffffffff1681526020019081526020015f205f0160016101000a81548160ff0219169083151502179055507f73d35f4b5dc2339683083dec639ba37f0f5592fc26de0e0603ac5ba2412cd0048160405161050b91906123a1565b60405180910390a150565b5f5f9054906101000a900473ffffffffffffffffffffffffffffffffffffffff1673ffffffffffffffffffffffffffffffffffffffff163373ffffffffffffffffffffffffffffffffffffffff16146105a4576040517f08c379a000000000000000000000000000000000000000000000000000000000815260040161059b90612404565b60405180910390fd5b60015f60146101000a81548160ff021916908360038111156105c9576105c8611bd6565b5b0217905550565b60085481565b5f60149054906101000a900460ff1681565b60035481565b6004602052805f5260405f205f91509050805f015490806001018054610613906124b7565b80601f016020809104026020016040519081016040528092919081815260200182805461063f906124b7565b801561068a5780601f106106615761010080835404028352916020019161068a565b820191905f5260205f20905b81548152906001019060200180831161066d57829003601f168201915b50505050509080600201805461069f906124b7565b80601f01602080910402602001604051908101604052809291908181526020018280546106cb906124b7565b80156107165780601f106106ed57610100808354040283529160200191610716565b820191905f5260205f20905b8154815290600101906020018083116106f957829003601f168201915b505050505090806003015f9054906101000a900460ff16908060030160019054906101000a900460ff1690806004018054610750906124b7565b80601f016020809104026020016040519081016040528092919081815260200182805461077c906124b7565b80156107c75780601f1061079e576101008083540402835291602001916107c7565b820191905f5260205f20905b8154815290600101906020018083116107aa57829003601f168201915b505050505090806005015f9054906101000a900460ff1690806006015490806007015f9054906101000a900460ff16905089565b610803611a8c565b60045f8381526020019081526020015f20604051806101200160405290815f8201548152602001600182018054610839906124b7565b80601f0160208091040260200160405190810160405280929190818152602001828054610865906124b7565b80156108b05780601f10610887576101008083540402835291602001916108b0565b820191905f5260205f20905b81548152906001019060200180831161089357829003601f168201915b505050505081526020016002820180546108c9906124b7565b80601f01602080910402602001604051908101604052809291908181526020018280546108f5906124b7565b80156109405780601f1061091757610100808354040283529160200191610940565b820191905f5260205f20905b81548152906001019060200180831161092357829003601f168201915b50505050508152602001600382015f9054906101000a900460ff1660ff1660ff1681526020016003820160019054906101000a900460ff16151515158152602001600482018054610990906124b7565b80601f01602080910402602001604051908101604052809291908181526020018280546109bc906124b7565b8015610a075780601f106109de57610100808354040283529160200191610a07565b820191905f5260205f20905b8154815290600101906020018083116109ea57829003601f168201915b50505050508152602001600582015f9054906101000a900460ff166002811115610a3457610a33611bd6565b5b6002811115610a4657610a45611bd6565b5b815260200160068201548152602001600782015f9054906101000a900460ff1615151515815250509050919050565b5f5f9054906101000a900473ffffffffffffffffffffffffffffffffffffffff1673ffffffffffffffffffffffffffffffffffffffff163373ffffffffffffffffffffffffffffffffffffffff1614610b03576040517f08c379a0000000000000000000000000000000000000000000000000000000008152600401610afa90612404565b60405180910390fd5b60035f60146101000a81548160ff02191690836003811115610b2857610b27611bd6565b5b02179055507f66ec723071e4bb646f7b35d31bc2dee8510979bd8c180edd0690d4f5e802f1e460405160405180910390a1565b5f5f9054906101000a900473ffffffffffffffffffffffffffffffffffffffff1673ffffffffffffffffffffffffffffffffffffffff163373ffffffffffffffffffffffffffffffffffffffff1614610be9576040517f08c379a0000000000000000000000000000000000000000000000000000000008152600401610be090612404565b60405180910390fd5b60025f60146101000a81548160ff02191690836003811115610c0e57610c0d611bd6565b5b021790555042600281905550603c81610c279190612514565b42610c329190612555565b6003819055507fff6a30dd22f5e8b783044c7d895a6e8592b55c56f139978d44dc39daf596731f600254600354604051610c6d929190612588565b60405180910390a150565b60025481565b5f5f9054906101000a900473ffffffffffffffffffffffffffffffffffffffff1673ffffffffffffffffffffffffffffffffffffffff163373ffffffffffffffffffffffffffffffffffffffff1614610d0c576040517f08c379a0000000000000000000000000000000000000000000000000000000008152600401610d0390612404565b60405180910390fd5b6001806003811115610d2157610d20611bd6565b5b5f60149054906101000a900460ff166003811115610d4257610d41611bd6565b5b14610d82576040517f08c379a0000000000000000000000000000000000000000000000000000000008152600401610d79906125f9565b60405180910390fd5b60015f815480929190610d9490612617565b91905055505f6002811115610dac57610dab611bd6565b5b826002811115610dbf57610dbe611bd6565b5b03610de05760065f815480929190610dd690612617565b9190505550610e41565b60016002811115610df457610df3611bd6565b5b826002811115610e0757610e06611bd6565b5b03610e285760075f815480929190610e1e90612617565b9190505550610e40565b60085f815480929190610e3a90612617565b91905055505b5b60405180610120016040528060015481526020018881526020018781526020018660ff1681526020018515158152602001848152602001836002811115610e8b57610e8a611bd6565b5b81526020015f81526020016001151581525060045f60015481526020019081526020015f205f820151815f01556020820151816001019081610ecd919061280f565b506040820151816002019081610ee3919061280f565b506060820151816003015f6101000a81548160ff021916908360ff16021790555060808201518160030160016101000a81548160ff02191690831515021790555060a0820151816004019081610f39919061280f565b5060c0820151816005015f6101000a81548160ff02191690836002811115610f6457610f63611bd6565b5b021790555060e08201518160060155610100820151816007015f6101000a81548160ff0219169083151502179055509050507fd1bfac6a4edc52f5e7e8db7d79f9150a0b6905194c43889f25e30ae24b1af6976001548884604051610fcb939291906128de565b60405180910390a150505050505050565b60065481565b6005602052805f5260405f205f91509050805f015f9054906101000a900460ff1690805f0160019054906101000a900460ff1690805f0160029054906101000a900460ff16905083565b60015481565b61103a611aeb565b60055f8373ffffffffffffffffffffffffffffffffffffffff1673ffffffffffffffffffffffffffffffffffffffff1681526020019081526020015f206040518060600160405290815f82015f9054906101000a900460ff161515151581526020015f820160019054906101000a900460ff161515151581526020015f820160029054906101000a900460ff1615151515815250509050919050565b60075481565b60028060038111156110f1576110f0611bd6565b5b5f60149054906101000a900460ff16600381111561111257611111611bd6565b5b14611152576040517f08c379a0000000000000000000000000000000000000000000000000000000008152600401611149906125f9565b60405180910390fd5b600254421015611197576040517f08c379a000000000000000000000000000000000000000000000000000000000815260040161118e90612964565b60405180910390fd5b6003544211156111dc576040517f08c379a00000000000000000000000000000000000000000000000000000000081526004016111d3906129cc565b60405180910390fd5b5f60055f3373ffffffffffffffffffffffffffffffffffffffff1673ffffffffffffffffffffffffffffffffffffffff1681526020019081526020015f209050805f015f9054906101000a900460ff1661126b576040517f08c379a00000000000000000000000000000000000000000000000000000000081526004016112629061246c565b60405180910390fd5b805f0160019054906101000a900460ff166112bb576040517f08c379a00000000000000000000000000000000000000000000000000000000081526004016112b290612a34565b60405180910390fd5b805f0160029054906101000a900460ff161561130c576040517f08c379a000000000000000000000000000000000000000000000000000000000815260040161130390612a9c565b60405180910390fd5b60078484905014611352576040517f08c379a000000000000000000000000000000000000000000000000000000000815260040161134990612b04565b60405180910390fd5b5f5f90505b8484905081101561140d575f6001826113709190612555565b90505b858590508110156113ff5785858281811061139157611390612b22565b5b905060200201358686848181106113ab576113aa612b22565b5b90506020020135036113f2576040517f08c379a00000000000000000000000000000000000000000000000000000000081526004016113e990612b99565b60405180910390fd5b8080600101915050611373565b508080600101915050611357565b5060045f8781526020019081526020015f206007015f9054906101000a900460ff1661146e576040517f08c379a000000000000000000000000000000000000000000000000000000000815260040161146590612c01565b60405180910390fd5b5f600281111561148157611480611bd6565b5b60045f8881526020019081526020015f206005015f9054906101000a900460ff1660028111156114b4576114b3611bd6565b5b146114f4576040517f08c379a00000000000000000000000000000000000000000000000000000000081526004016114eb90612c69565b60405180910390fd5b60045f8781526020019081526020015f206006015f81548092919061151890612617565b91905055507f04c84a5221a4ec38bae6ca6f045bceb73001f03f12568b6f1c7537117143312d8660045f8981526020019081526020015f2060060154604051611562929190612588565b60405180910390a160045f8681526020019081526020015f206007015f9054906101000a900460ff166115ca576040517f08c379a00000000000000000000000000000000000000000000000000000000081526004016115c190612cd1565b60405180910390fd5b600160028111156115de576115dd611bd6565b5b60045f8781526020019081526020015f206005015f9054906101000a900460ff16600281111561161157611610611bd6565b5b14611651576040517f08c379a000000000000000000000000000000000000000000000000000000000815260040161164890612d39565b60405180910390fd5b60045f8681526020019081526020015f206006015f81548092919061167590612617565b91905055507f04c84a5221a4ec38bae6ca6f045bceb73001f03f12568b6f1c7537117143312d8560045f8881526020019081526020015f20600601546040516116bf929190612588565b60405180910390a15f5f90505b600781101561185c575f8585838181106116e9576116e8612b22565b5b90506020020135905060045f8281526020019081526020015f206007015f9054906101000a900460ff16611752576040517f08c379a000000000000000000000000000000000000000000000000000000000815260040161174990612da1565b60405180910390fd5b60028081111561176557611764611bd6565b5b60045f8381526020019081526020015f206005015f9054906101000a900460ff16600281111561179857611797611bd6565b5b146117d8576040517f08c379a00000000000000000000000000000000000000000000000000000000081526004016117cf90612e09565b60405180910390fd5b60045f8281526020019081526020015f206006015f8154809291906117fc90612617565b91905055507f04c84a5221a4ec38bae6ca6f045bceb73001f03f12568b6f1c7537117143312d8160045f8481526020019081526020015f2060060154604051611846929190612588565b60405180910390a15080806001019150506116cc565b506001815f0160026101000a81548160ff0219169083151502179055503373ffffffffffffffffffffffffffffffffffffffff167f18c832fefb02285898e5b19ba7ab912997cdde5845a96c2f31e13b3a92438068878787876040516118c59493929190612e9f565b60405180910390a2505050505050565b60018060038111156118ea576118e9611bd6565b5b5f60149054906101000a900460ff16600381111561190b5761190a611bd6565b5b1461194b576040517f08c379a0000000000000000000000000000000000000000000000000000000008152600401611942906125f9565b60405180910390fd5b60055f3373ffffffffffffffffffffffffffffffffffffffff1673ffffffffffffffffffffffffffffffffffffffff1681526020019081526020015f205f015f9054906101000a900460ff16156119d7576040517f08c379a00000000000000000000000000000000000000000000000000000000081526004016119ce90612f27565b60405180910390fd5b600160055f3373ffffffffffffffffffffffffffffffffffffffff1673ffffffffffffffffffffffffffffffffffffffff1681526020019081526020015f205f015f6101000a81548160ff0219169083151502179055507fb6be2187d059cc2a55fe29e0e503b566e1e0f8c8780096e185429350acffd3dd33604051611a5d91906123a1565b60405180910390a150565b5f5f9054906101000a900473ffffffffffffffffffffffffffffffffffffffff1681565b6040518061012001604052805f815260200160608152602001606081526020015f60ff1681526020015f15158152602001606081526020015f6002811115611ad757611ad6611bd6565b5b81526020015f81526020015f151581525090565b60405180606001604052805f151581526020015f151581526020015f151581525090565b5f604051905090565b5f5ffd5b5f5ffd5b5f73ffffffffffffffffffffffffffffffffffffffff82169050919050565b5f611b4982611b20565b9050919050565b611b5981611b3f565b8114611b63575f5ffd5b50565b5f81359050611b7481611b50565b92915050565b5f60208284031215611b8f57611b8e611b18565b5b5f611b9c84828501611b66565b91505092915050565b5f819050919050565b611bb781611ba5565b82525050565b5f602082019050611bd05f830184611bae565b92915050565b7f4e487b71000000000000000000000000000000000000000000000000000000005f52602160045260245ffd5b60048110611c1457611c13611bd6565b5b50565b5f819050611c2482611c03565b919050565b5f611c3382611c17565b9050919050565b611c4381611c29565b82525050565b5f602082019050611c5c5f830184611c3a565b92915050565b611c6b81611ba5565b8114611c75575f5ffd5b50565b5f81359050611c8681611c62565b92915050565b5f60208284031215611ca157611ca0611b18565b5b5f611cae84828501611c78565b91505092915050565b5f81519050919050565b5f82825260208201905092915050565b8281835e5f83830152505050565b5f601f19601f8301169050919050565b5f611cf982611cb7565b611d038185611cc1565b9350611d13818560208601611cd1565b611d1c81611cdf565b840191505092915050565b5f60ff82169050919050565b611d3c81611d27565b82525050565b5f8115159050919050565b611d5681611d42565b82525050565b60038110611d6d57611d6c611bd6565b5b50565b5f819050611d7d82611d5c565b919050565b5f611d8c82611d70565b9050919050565b611d9c81611d82565b82525050565b5f61012082019050611db65f83018c611bae565b8181036020830152611dc8818b611cef565b90508181036040830152611ddc818a611cef565b9050611deb6060830189611d33565b611df86080830188611d4d565b81810360a0830152611e0a8187611cef565b9050611e1960c0830186611d93565b611e2660e0830185611bae565b611e34610100830184611d4d565b9a9950505050505050505050565b611e4b81611ba5565b82525050565b5f82825260208201905092915050565b5f611e6b82611cb7565b611e758185611e51565b9350611e85818560208601611cd1565b611e8e81611cdf565b840191505092915050565b611ea281611d27565b82525050565b611eb181611d42565b82525050565b611ec081611d82565b82525050565b5f61012083015f830151611edc5f860182611e42565b5060208301518482036020860152611ef48282611e61565b91505060408301518482036040860152611f0e8282611e61565b9150506060830151611f236060860182611e99565b506080830151611f366080860182611ea8565b5060a083015184820360a0860152611f4e8282611e61565b91505060c0830151611f6360c0860182611eb7565b5060e0830151611f7660e0860182611e42565b50610100830151611f8b610100860182611ea8565b508091505092915050565b5f6020820190508181035f830152611fae8184611ec6565b905092915050565b5f5ffd5b5f5ffd5b7f4e487b71000000000000000000000000000000000000000000000000000000005f52604160045260245ffd5b611ff482611cdf565b810181811067ffffffffffffffff8211171561201357612012611fbe565b5b80604052505050565b5f612025611b0f565b90506120318282611feb565b919050565b5f67ffffffffffffffff8211156120505761204f611fbe565b5b61205982611cdf565b9050602081019050919050565b828183375f83830152505050565b5f61208661208184612036565b61201c565b9050828152602081018484840111156120a2576120a1611fba565b5b6120ad848285612066565b509392505050565b5f82601f8301126120c9576120c8611fb6565b5b81356120d9848260208601612074565b91505092915050565b6120eb81611d27565b81146120f5575f5ffd5b50565b5f81359050612106816120e2565b92915050565b61211581611d42565b811461211f575f5ffd5b50565b5f813590506121308161210c565b92915050565b60038110612142575f5ffd5b50565b5f8135905061215381612136565b92915050565b5f5f5f5f5f5f60c0878903121561217357612172611b18565b5b5f87013567ffffffffffffffff8111156121905761218f611b1c565b5b61219c89828a016120b5565b965050602087013567ffffffffffffffff8111156121bd576121bc611b1c565b5b6121c989828a016120b5565b95505060406121da89828a016120f8565b94505060606121eb89828a01612122565b935050608087013567ffffffffffffffff81111561220c5761220b611b1c565b5b61221889828a016120b5565b92505060a061222989828a01612145565b9150509295509295509295565b5f6060820190506122495f830186611d4d565b6122566020830185611d4d565b6122636040830184611d4d565b949350505050565b606082015f82015161227f5f850182611ea8565b5060208201516122926020850182611ea8565b5060408201516122a56040850182611ea8565b50505050565b5f6060820190506122be5f83018461226b565b92915050565b5f5ffd5b5f5ffd5b5f5f83601f8401126122e1576122e0611fb6565b5b8235905067ffffffffffffffff8111156122fe576122fd6122c4565b5b60208301915083602082028301111561231a576123196122c8565b5b9250929050565b5f5f5f5f6060858703121561233957612338611b18565b5b5f61234687828801611c78565b945050602061235787828801611c78565b935050604085013567ffffffffffffffff81111561237857612377611b1c565b5b612384878288016122cc565b925092505092959194509250565b61239b81611b3f565b82525050565b5f6020820190506123b45f830184612392565b92915050565b7f4e6f742061646d696e00000000000000000000000000000000000000000000005f82015250565b5f6123ee600983611cc1565b91506123f9826123ba565b602082019050919050565b5f6020820190508181035f83015261241b816123e2565b9050919050565b7f4e6f7420726567697374657265640000000000000000000000000000000000005f82015250565b5f612456600e83611cc1565b915061246182612422565b602082019050919050565b5f6020820190508181035f8301526124838161244a565b9050919050565b7f4e487b71000000000000000000000000000000000000000000000000000000005f52602260045260245ffd5b5f60028204905060018216806124ce57607f821691505b6020821081036124e1576124e061248a565b5b50919050565b7f4e487b71000000000000000000000000000000000000000000000000000000005f52601160045260245ffd5b5f61251e82611ba5565b915061252983611ba5565b925082820261253781611ba5565b9150828204841483151761254e5761254d6124e7565b5b5092915050565b5f61255f82611ba5565b915061256a83611ba5565b9250828201905080821115612582576125816124e7565b5b92915050565b5f60408201905061259b5f830185611bae565b6125a86020830184611bae565b9392505050565b7f57726f6e672073746174650000000000000000000000000000000000000000005f82015250565b5f6125e3600b83611cc1565b91506125ee826125af565b602082019050919050565b5f6020820190508181035f830152612610816125d7565b9050919050565b5f61262182611ba5565b91507fffffffffffffffffffffffffffffffffffffffffffffffffffffffffffffffff8203612653576126526124e7565b5b600182019050919050565b5f819050815f5260205f209050919050565b5f6020601f8301049050919050565b5f82821b905092915050565b5f600883026126ba7fffffffffffffffffffffffffffffffffffffffffffffffffffffffffffffffff8261267f565b6126c4868361267f565b95508019841693508086168417925050509392505050565b5f819050919050565b5f6126ff6126fa6126f584611ba5565b6126dc565b611ba5565b9050919050565b5f819050919050565b612718836126e5565b61272c61272482612706565b84845461268b565b825550505050565b5f5f905090565b612743612734565b61274e81848461270f565b505050565b5f5b82811015612774576127695f82840161273b565b600181019050612755565b505050565b601f8211156127c757828211156127c6576127938161265e565b61279c83612670565b6127a585612670565b60208610156127b2575f90505b8083016127c182840382612753565b505050505b5b505050565b5f82821c905092915050565b5f6127e75f19846008026127cc565b1980831691505092915050565b5f6127ff83836127d8565b9150826002028217905092915050565b61281882611cb7565b67ffffffffffffffff81111561283157612830611fbe565b5b61283b82546124b7565b612846828285612779565b5f60209050601f831160018114612877575f8415612865578287015190505b61286f85826127f4565b8655506128d6565b601f1984166128858661265e565b5f5b828110156128ac57848901518255600182019150602085019450602081019050612887565b868310156128c957848901516128c5601f8916826127d8565b8355505b6001600288020188555050505b505050505050565b5f6060820190506128f15f830186611bae565b81810360208301526129038185611cef565b90506129126040830184611d93565b949350505050565b7f566f74696e67206e6f74207374617274656400000000000000000000000000005f82015250565b5f61294e601283611cc1565b91506129598261291a565b602082019050919050565b5f6020820190508181035f83015261297b81612942565b9050919050565b7f566f74696e6720656e64656400000000000000000000000000000000000000005f82015250565b5f6129b6600c83611cc1565b91506129c182612982565b602082019050919050565b5f6020820190508181035f8301526129e3816129aa565b9050919050565b7f4e6f7420766572696669656400000000000000000000000000000000000000005f82015250565b5f612a1e600c83611cc1565b9150612a29826129ea565b602082019050919050565b5f6020820190508181035f830152612a4b81612a12565b9050919050565b7f416c726561647920766f746564000000000000000000000000000000000000005f82015250565b5f612a86600d83611cc1565b9150612a9182612a52565b602082019050919050565b5f6020820190508181035f830152612ab381612a7a565b9050919050565b7f4d7573742073656c6563742037206d656d6265727300000000000000000000005f82015250565b5f612aee601583611cc1565b9150612af982612aba565b602082019050919050565b5f6020820190508181035f830152612b1b81612ae2565b9050919050565b7f4e487b71000000000000000000000000000000000000000000000000000000005f52603260045260245ffd5b7f4475706c6963617465206d656d62657220766f746500000000000000000000005f82015250565b5f612b83601583611cc1565b9150612b8e82612b4f565b602082019050919050565b5f6020820190508181035f830152612bb081612b77565b9050919050565b7f496e76616c696420707265736964656e740000000000000000000000000000005f82015250565b5f612beb601183611cc1565b9150612bf682612bb7565b602082019050919050565b5f6020820190508181035f830152612c1881612bdf565b9050919050565b7f4e6f7420707265736964656e74000000000000000000000000000000000000005f82015250565b5f612c53600d83611cc1565b9150612c5e82612c1f565b602082019050919050565b5f6020820190508181035f830152612c8081612c47565b9050919050565b7f496e76616c6964207365637265746172790000000000000000000000000000005f82015250565b5f612cbb601183611cc1565b9150612cc682612c87565b602082019050919050565b5f6020820190508181035f830152612ce881612caf565b9050919050565b7f4e6f7420736563726574617279000000000000000000000000000000000000005f82015250565b5f612d23600d83611cc1565b9150612d2e82612cef565b602082019050919050565b5f6020820190508181035f830152612d5081612d17565b9050919050565b7f496e76616c6964206d656d6265720000000000000000000000000000000000005f82015250565b5f612d8b600e83611cc1565b9150612d9682612d57565b602082019050919050565b5f6020820190508181035f830152612db881612d7f565b9050919050565b7f4e6f74206d656d626572000000000000000000000000000000000000000000005f82015250565b5f612df3600a83611cc1565b9150612dfe82612dbf565b602082019050919050565b5f6020820190508181035f830152612e2081612de7565b9050919050565b5f82825260208201905092915050565b5f5ffd5b82818337505050565b5f612e4f8385612e27565b93507f07ffffffffffffffffffffffffffffffffffffffffffffffffffffffffffffff831115612e8257612e81612e37565b5b602083029250612e93838584612e3b565b82840190509392505050565b5f606082019050612eb25f830187611bae565b612ebf6020830186611bae565b8181036040830152612ed2818486612e44565b905095945050505050565b7f416c7265616479207265676973746572656400000000000000000000000000005f82015250565b5f612f11601283611cc1565b9150612f1c82612edd565b602082019050919050565b5f6020820190508181035f830152612f3e81612f05565b905091905056fea26469706673582212208aa8c3f3edd395b8a8724fc81536b4efef8cda2323d402328b3c988a3f4747a364736f6c63430008230033","linkReferences":{}},"methodIdentifiers":{"admin()":"f851a440","candidateCount()":"a9a981a3","candidates(uint256)":"3477ee2e","electionState()":"2280043d","endElection()":"59f78468","endTime()":"3197cbb6","generalMemberCount()":"144f0b3c","getCandidate(uint256)":"35b8e820","getVoter(address)":"d4f50f98","presidentCount()":"a3e152dc","registerCandidate(string,string,uint8,bool,string,uint8)":"8bfd63ba","registerVoter()":"ecb617d9","secretaryCount()":"d971bd86","startElection(uint256)":"6d32dc4b","startRegistration()":"10b86695","startTime()":"78e97925","verifyVoter(address)":"09bd0950","vote(uint256,uint256,uint256[])":"e1349bd7","voters(address)":"a3ec138d"},"id":19}