{"abi":[{"type":"constructor","inputs":[{"name":"_merkleRoot","type":"bytes32","internalType":"bytes32"}],"stateMutability":"nonpayable"},{"type":"function","name":"GENERAL_MEMBERS_ELECTED","inputs":[],"outputs":[{"name":"","type":"uint256","internalType":"uint256"}],"stateMutability":"view"},{"type":"function","name":"admin","inputs":[],"outputs":[{"name":"","type":"address","internalType":"address"}],"stateMutability":"view"},{"type":"function","name":"candidateCount","inputs":[],"outputs":[{"name":"","type":"uint256","internalType":"uint256"}],"stateMutability":"view"},{"type":"function","name":"candidateRegisteredInElection","inputs":[{"name":"","type":"address","internalType":"address"}],"outputs":[{"name":"","type":"uint256","internalType":"uint256"}],"stateMutability":"view"},{"type":"function","name":"candidates","inputs":[{"name":"","type":"uint256","internalType":"uint256"}],"outputs":[{"name":"id","type":"uint256","internalType":"uint256"},{"name":"name","type":"string","internalType":"string"},{"name":"studentId","type":"string","internalType":"string"},{"name":"year","type":"uint8","internalType":"uint8"},{"name":"isFemale","type":"bool","internalType":"bool"},{"name":"imageCID","type":"string","internalType":"string"},{"name":"position","type":"uint8","internalType":"enum Election3.Position"},{"name":"voteCount","type":"uint256","internalType":"uint256"},{"name":"exists","type":"bool","internalType":"bool"}],"stateMutability":"view"},{"type":"function","name":"castVote","inputs":[{"name":"_presidentId","type":"uint256","internalType":"uint256"},{"name":"_secretaryId","type":"uint256","internalType":"uint256"},{"name":"_gmIds","type":"uint256[]","internalType":"uint256[]"},{"name":"_proof","type":"bytes32[]","internalType":"bytes32[]"}],"outputs":[],"stateMutability":"nonpayable"},{"type":"function","name":"currentElectionId","inputs":[],"outputs":[{"name":"","type":"uint256","internalType":"uint256"}],"stateMutability":"view"},{"type":"function","name":"electionHistory","inputs":[{"name":"","type":"uint256","internalType":"uint256"}],"outputs":[{"name":"presidentWinnerId","type":"uint256","internalType":"uint256"},{"name":"secretaryWinnerId","type":"uint256","internalType":"uint256"},{"name":"totalCandidates","type":"uint256","internalType":"uint256"},{"name":"timestamp","type":"uint256","internalType":"uint256"}],"stateMutability":"view"},{"type":"function","name":"endElection","inputs":[],"outputs":[],"stateMutability":"nonpayable"},{"type":"function","name":"getCandidate","inputs":[{"name":"_id","type":"uint256","internalType":"uint256"}],"outputs":[{"name":"","type":"tuple","internalType":"struct Election3.Candidate","components":[{"name":"id","type":"uint256","internalType":"uint256"},{"name":"name","type":"string","internalType":"string"},{"name":"studentId","type":"string","internalType":"string"},{"name":"year","type":"uint8","internalType":"uint8"},{"name":"isFemale","type":"bool","internalType":"bool"},{"name":"imageCID","type":"string","internalType":"string"},{"name":"position","type":"uint8","internalType":"enum Election3.Position"},{"name":"voteCount","type":"uint256","internalType":"uint256"},{"name":"exists","type":"bool","internalType":"bool"}]}],"stateMutability":"view"},{"type":"function","name":"getElectionResult","inputs":[{"name":"_index","type":"uint256","internalType":"uint256"}],"outputs":[{"name":"","type":"tuple","internalType":"struct Election3.ElectionResult","components":[{"name":"presidentWinnerId","type":"uint256","internalType":"uint256"},{"name":"secretaryWinnerId","type":"uint256","internalType":"uint256"},{"name":"generalMemberWinnerIds","type":"uint256[5]","internalType":"uint256[5]"},{"name":"totalCandidates","type":"uint256","internalType":"uint256"},{"name":"timestamp","type":"uint256","internalType":"uint256"}]}],"stateMutability":"view"},{"type":"function","name":"getPhase","inputs":[],"outputs":[{"name":"","type":"uint8","internalType":"enum Election3.Phase"}],"stateMutability":"view"},{"type":"function","name":"hasVoted","inputs":[{"name":"_voter","type":"address","internalType":"address"}],"outputs":[{"name":"","type":"bool","internalType":"bool"}],"stateMutability":"view"},{"type":"function","name":"historyCount","inputs":[],"outputs":[{"name":"","type":"uint256","internalType":"uint256"}],"stateMutability":"view"},{"type":"function","name":"identityMerkleRoot","inputs":[],"outputs":[{"name":"","type":"bytes32","internalType":"bytes32"}],"stateMutability":"view"},{"type":"function","name":"phase","inputs":[],"outputs":[{"name":"","type":"uint8","internalType":"enum Election3.Phase"}],"stateMutability":"view"},{"type":"function","name":"regCodeMerkleRoot","inputs":[],"outputs":[{"name":"","type":"bytes32","internalType":"bytes32"}],"stateMutability":"view"},{"type":"function","name":"registerCandidate","inputs":[{"name":"_guid","type":"string","internalType":"string"},{"name":"_name","type":"string","internalType":"string"},{"name":"_year","type":"uint8","internalType":"uint8"},{"name":"_isFemale","type":"bool","internalType":"bool"},{"name":"_imageCID","type":"string","internalType":"string"},{"name":"_position","type":"uint8","internalType":"enum Election3.Position"},{"name":"_proof","type":"bytes32[]","internalType":"bytes32[]"}],"outputs":[],"stateMutability":"nonpayable"},{"type":"function","name":"registrationEnd","inputs":[],"outputs":[{"name":"","type":"uint256","internalType":"uint256"}],"stateMutability":"view"},{"type":"function","name":"setIdentityMerkleRoot","inputs":[{"name":"_root","type":"bytes32","internalType":"bytes32"}],"outputs":[],"stateMutability":"nonpayable"},{"type":"function","name":"setMerkleRoot","inputs":[{"name":"_merkleRoot","type":"bytes32","internalType":"bytes32"}],"outputs":[],"stateMutability":"nonpayable"},{"type":"function","name":"setRegCodeMerkleRoot","inputs":[{"name":"_root","type":"bytes32","internalType":"bytes32"}],"outputs":[],"stateMutability":"nonpayable"},{"type":"function","name":"startNewElection","inputs":[],"outputs":[],"stateMutability":"nonpayable"},{"type":"function","name":"startRegistration","inputs":[{"name":"_end","type":"uint256","internalType":"uint256"}],"outputs":[],"stateMutability":"nonpayable"},{"type":"function","name":"startVoting","inputs":[{"name":"_end","type":"uint256","internalType":"uint256"}],"outputs":[],"stateMutability":"nonpayable"},{"type":"function","name":"verifyRegCode","inputs":[{"name":"studentId","type":"string","internalType":"string"},{"name":"code","type":"string","internalType":"string"},{"name":"proof","type":"bytes32[]","internalType":"bytes32[]"}],"outputs":[{"name":"","type":"bool","internalType":"bool"}],"stateMutability":"view"},{"type":"function","name":"vote","inputs":[{"name":"_candidateId","type":"uint256","internalType":"uint256"},{"name":"_proof","type":"bytes32[]","internalType":"bytes32[]"}],"outputs":[],"stateMutability":"nonpayable"},{"type":"function","name":"votedInElection","inputs":[{"name":"","type":"address","internalType":"address"}],"outputs":[{"name":"","type":"uint256","internalType":"uint256"}],"stateMutability":"view"},{"type":"function","name":"voterMerkleRoot","inputs":[],"outputs":[{"name":"","type":"bytes32","internalType":"bytes32"}],"stateMutability":"view"},{"type":"function","name":"votingEnd","inputs":[],"outputs":[{"name":"","type":"uint256","internalType":"uint256"}],"stateMutability":"view"},{"type":"event","name":"BallotCast","inputs":[{"name":"voter","type":"address","indexed":true,"internalType":"address"},{"name":"presId","type":"uint256","indexed":false,"internalType":"uint256"},{"name":"secId","type":"uint256","indexed":false,"internalType":"uint256"},{"name":"gmIds","type":"uint256[]","indexed":false,"internalType":"uint256[]"}],"anonymous":false},{"type":"event","name":"CandidateRegistered","inputs":[{"name":"id","type":"uint256","indexed":true,"internalType":"uint256"},{"name":"candidate","type":"address","indexed":true,"internalType":"address"},{"name":"name","type":"string","indexed":false,"internalType":"string"},{"name":"position","type":"uint8","indexed":false,"internalType":"enum Election3.Position"},{"name":"imageCID","type":"string","indexed":false,"internalType":"string"}],"anonymous":false},{"type":"event","name":"IdentityMerkleRootUpdated","inputs":[{"name":"newRoot","type":"bytes32","indexed":false,"internalType":"bytes32"}],"anonymous":false},{"type":"event","name":"MerkleRootUpdated","inputs":[{"name":"newRoot","type":"bytes32","indexed":false,"internalType":"bytes32"}],"anonymous":false},{"type":"event","name":"NewElectionStarted","inputs":[{"name":"electionId","type":"uint256","indexed":true,"internalType":"uint256"}],"anonymous":false},{"type":"event","name":"PhaseChanged","inputs":[{"name":"newPhase","type":"uint8","indexed":false,"internalType":"enum Election3.Phase"}],"anonymous":false},{"type":"event","name":"RegCodeMerkleRootUpdated","inputs":[{"name":"newRoot","type":"bytes32","indexed":false,"internalType":"bytes32"}],"anonymous":false},{"type":"event","name":"VoteCast","inputs":[{"name":"voter","type":"address","indexed":true,"internalType":"address"},{"name":"candidateId","type":"uint256","indexed":false,"internalType":"uint256"}],"anonymous":false}],"bytecode":{"object":"0x608060405234801561000f575f5ffd5b50604051614e10380380614e10833981810160405281019061003191906100e5565b335f5f6101000a81548173ffffffffffffffffffffffffffffffffffffffff021916908373ffffffffffffffffffffffffffffffffffffffff1602179055508060058190555060016004819055505f5f60146101000a81548160ff021916908360038111156100a3576100a2610110565b5b02179055505061013d565b5f5ffd5b5f819050919050565b6100c4816100b2565b81146100ce575f5ffd5b50565b5f815190506100df816100bb565b92915050565b5f602082840312156100fa576100f96100ae565b5b5f610107848285016100d1565b91505092915050565b7f4e487b71000000000000000000000000000000000000000000000000000000005f52602160045260245ffd5b614cc68061014a5f395ff3fe608060405234801561000f575f5ffd5b50600436106101d8575f3560e01c8063797dd1f211610102578063acf46e82116100a0578063d2cd0a751161006f578063d2cd0a751461054d578063eced02801461056b578063f851a44014610589578063fd27419b146105a7576101d8565b8063acf46e82146104c7578063ae4924dd146104e3578063b1c9fe6e146104ff578063c27a58aa1461051d576101d8565b80638cb1b354116100dc5780638cb1b3541461044f57806398ecf2a01461046d5780639e225d841461048b578063a9a981a3146104a9576101d8565b8063797dd1f2146103e55780637cb647591461041557806385a3863514610431576101d8565b806335b8e8201161017a57806347f33fb51161014957806347f33fb51461039957806358e930c8146103a357806359f78468146103bf5780636e38d032146103c9576101d8565b806335b8e820146102fc57806335da42711461032c5780633a9c9ffc1461035f5780633d2f5bda1461037d576101d8565b806323fc4b36116101b657806323fc4b361461025a5780632a69fb461461028a5780632ed1f9b5146102a85780633477ee2e146102c4576101d8565b806309eef43e146101dc57806313446a751461020c578063185c7db11461022a575b5f5ffd5b6101f660048036038101906101f19190612e2f565b6105c3565b6040516102039190612e74565b60405180910390f35b61021461060d565b6040516102219190612ea5565b60405180910390f35b610244600480360381019061023f9190612f74565b610613565b6040516102519190612e74565b60405180910390f35b610274600480360381019061026f919061304e565b61069e565b6040516102819190613186565b60405180910390f35b610292610735565b60405161029f91906131b8565b60405180910390f35b6102c260048036038101906102bd919061304e565b61073b565b005b6102de60048036038101906102d9919061304e565b610990565b6040516102f3999897969594939291906132cf565b60405180910390f35b6103166004803603810190610311919061304e565b610b9d565b60405161032391906134b4565b60405180910390f35b6103466004803603810190610341919061304e565b610e17565b60405161035694939291906134d4565b60405180910390f35b610367610e43565b6040516103749190612ea5565b60405180910390f35b6103976004803603810190610392919061304e565b610e49565b005b6103a161103f565b005b6103bd60048036038101906103b891906136b6565b611439565b005b6103c761193d565b005b6103e360048036038101906103de91906137f1565b611ae9565b005b6103ff60048036038101906103fa9190612e2f565b611bb8565b60405161040c9190612ea5565b60405180910390f35b61042f600480360381019061042a91906137f1565b611bcd565b005b610439611c9c565b6040516104469190612ea5565b60405180910390f35b610457611ca2565b60405161046491906131b8565b60405180910390f35b610475611ca8565b6040516104829190612ea5565b60405180910390f35b610493611cae565b6040516104a09190612ea5565b60405180910390f35b6104b1611cb3565b6040516104be9190612ea5565b60405180910390f35b6104e160048036038101906104dc9190613871565b611cb9565b005b6104fd60048036038101906104f891906137f1565b61242c565b005b6105076124fb565b604051610514919061395a565b60405180910390f35b61053760048036038101906105329190612e2f565b61250d565b6040516105449190612ea5565b60405180910390f35b610555612522565b60405161056291906131b8565b60405180910390f35b610573612528565b604051610580919061395a565b60405180910390f35b61059161253d565b60405161059e9190613982565b60405180910390f35b6105c160048036038101906105bc919061399b565b612561565b005b5f60045460095f8473ffffffffffffffffffffffffffffffffffffffff1673ffffffffffffffffffffffffffffffffffffffff1681526020019081526020015f2054149050919050565b60015481565b5f5f8787878760405160200161062c9493929190613a26565b6040516020818303038152906040528051906020012090506106918484808060200260200160405190810160405280939291908181526020018383602002808284375f81840152601f19601f8201169050808301925050505050505060075483612875565b9150509695505050505050565b6106a6612d12565b600b5f8381526020019081526020015f206040518060a00160405290815f82015481526020016001820154815260200160028201600580602002604051908101604052809291908260058015610711576020028201915b8154815260200190600101908083116106fd575b50505050508152602001600782015481526020016008820154815250509050919050565b60055481565b5f5f9054906101000a900473ffffffffffffffffffffffffffffffffffffffff1673ffffffffffffffffffffffffffffffffffffffff163373ffffffffffffffffffffffffffffffffffffffff16146107c9576040517f08c379a00000000000000000000000000000000000000000000000000000000081526004016107c090613a97565b60405180910390fd5b5f60038111156107dc576107db61325c565b5b5f60149054906101000a900460ff1660038111156107fd576107fc61325c565b5b148061083a57506003808111156108175761081661325c565b5b5f60149054906101000a900460ff1660038111156108385761083761325c565b5b145b610879576040517f08c379a000000000000000000000000000000000000000000000000000000000815260040161087090613aff565b60405180910390fd5b4281116108bb576040517f08c379a00000000000000000000000000000000000000000000000000000000081526004016108b290613b67565b60405180910390fd5b5f60038111156108ce576108cd61325c565b5b5f60149054906101000a900460ff1660038111156108ef576108ee61325c565b5b03610924576004547f55c3cae3ec819b66218c64911b87eb1e29c1e3ce9f6d1f4a30b463db13e9090960405160405180910390a25b60015f60146101000a81548160ff021916908360038111156109495761094861325c565b5b0217905550806001819055507fa6dcc92f45df25789d5639b7a0c97ba1edf3bb1c0b5dd3376fd96a0db87c46426001604051610985919061395a565b60405180910390a150565b6008602052805f5260405f205f91509050805f0154908060010180546109b590613bb2565b80601f01602080910402602001604051908101604052809291908181526020018280546109e190613bb2565b8015610a2c5780601f10610a0357610100808354040283529160200191610a2c565b820191905f5260205f20905b815481529060010190602001808311610a0f57829003601f168201915b505050505090806002018054610a4190613bb2565b80601f0160208091040260200160405190810160405280929190818152602001828054610a6d90613bb2565b8015610ab85780601f10610a8f57610100808354040283529160200191610ab8565b820191905f5260205f20905b815481529060010190602001808311610a9b57829003601f168201915b505050505090806003015f9054906101000a900460ff16908060030160019054906101000a900460ff1690806004018054610af290613bb2565b80601f0160208091040260200160405190810160405280929190818152602001828054610b1e90613bb2565b8015610b695780601f10610b4057610100808354040283529160200191610b69565b820191905f5260205f20905b815481529060010190602001808311610b4c57829003601f168201915b505050505090806005015f9054906101000a900460ff1690806006015490806007015f9054906101000a900460ff16905089565b610ba5612d43565b60085f8381526020019081526020015f20604051806101200160405290815f8201548152602001600182018054610bdb90613bb2565b80601f0160208091040260200160405190810160405280929190818152602001828054610c0790613bb2565b8015610c525780601f10610c2957610100808354040283529160200191610c52565b820191905f5260205f20905b815481529060010190602001808311610c3557829003601f168201915b50505050508152602001600282018054610c6b90613bb2565b80601f0160208091040260200160405190810160405280929190818152602001828054610c9790613bb2565b8015610ce25780601f10610cb957610100808354040283529160200191610ce2565b820191905f5260205f20905b815481529060010190602001808311610cc557829003601f168201915b50505050508152602001600382015f9054906101000a900460ff1660ff1660ff1681526020016003820160019054906101000a900460ff16151515158152602001600482018054610d3290613bb2565b80601f0160208091040260200160405190810160405280929190818152602001828054610d5e90613bb2565b8015610da95780601f10610d8057610100808354040283529160200191610da9565b820191905f5260205f20905b815481529060010190602001808311610d8c57829003601f168201915b50505050508152602001600582015f9054906101000a900460ff166002811115610dd657610dd561325c565b5b6002811115610de857610de761325c565b5b815260200160068201548152602001600782015f9054906101000a900460ff1615151515815250509050919050565b600b602052805f5260405f205f91509050805f0154908060010154908060070154908060080154905084565b600c5481565b5f5f9054906101000a900473ffffffffffffffffffffffffffffffffffffffff1673ffffffffffffffffffffffffffffffffffffffff163373ffffffffffffffffffffffffffffffffffffffff1614610ed7576040517f08c379a0000000000000000000000000000000000000000000000000000000008152600401610ece90613a97565b60405180910390fd5b60016003811115610eeb57610eea61325c565b5b5f60149054906101000a900460ff166003811115610f0c57610f0b61325c565b5b14610f4c576040517f08c379a0000000000000000000000000000000000000000000000000000000008152600401610f4390613c2c565b60405180910390fd5b600154421015610f91576040517f08c379a0000000000000000000000000000000000000000000000000000000008152600401610f8890613c94565b60405180910390fd5b428111610fd3576040517f08c379a0000000000000000000000000000000000000000000000000000000008152600401610fca90613b67565b60405180910390fd5b60025f60146101000a81548160ff02191690836003811115610ff857610ff761325c565b5b0217905550806002819055507fa6dcc92f45df25789d5639b7a0c97ba1edf3bb1c0b5dd3376fd96a0db87c46426002604051611034919061395a565b60405180910390a150565b5f5f9054906101000a900473ffffffffffffffffffffffffffffffffffffffff1673ffffffffffffffffffffffffffffffffffffffff163373ffffffffffffffffffffffffffffffffffffffff16146110cd576040517f08c379a00000000000000000000000000000000000000000000000000000000081526004016110c490613a97565b60405180910390fd5b60038060038111156110e2576110e161325c565b5b5f60149054906101000a900460ff1660038111156111035761110261325c565b5b14611143576040517f08c379a000000000000000000000000000000000000000000000000000000000815260040161113a90613cfc565b60405180910390fd5b5f60035411611187576040517f08c379a000000000000000000000000000000000000000000000000000000000815260040161117e90613d64565b60405180910390fd5b5f6111915f61288b565b90505f61119e600161288b565b90505f5f5f600190505b600354811161127e5760085f8281526020019081526020015f206007015f9054906101000a900460ff16801561122157506002808111156111ec576111eb61325c565b5b60085f8381526020019081526020015f206005015f9054906101000a900460ff16600281111561121f5761121e61325c565b5b145b1561126b57828061123190613daf565b93505060085f8281526020019081526020015f2060030160019054906101000a900460ff161561126a57818061126690613daf565b9250505b5b808061127690613daf565b9150506111a8565b505f8211156113105760058210156112cb576040517f08c379a00000000000000000000000000000000000000000000000000000000081526004016112c290613e40565b60405180910390fd5b600281101561130f576040517f08c379a000000000000000000000000000000000000000000000000000000000815260040161130690613ece565b60405180910390fd5b5b5f611319612968565b90506040518060a00160405280868152602001858152602001828152602001600354815260200142815250600b5f600c5481526020019081526020015f205f820151815f015560208201518160010155604082015181600201908161137e919061409c565b506060820151816007015560808201518160080155905050600c5f8154809291906113a890613daf565b919050555060045f8154809291906113bf90613daf565b91905055505f6003819055505f5f60146101000a81548160ff021916908360038111156113ef576113ee61325c565b5b02179055505f6001819055505f6002819055506004547f55c3cae3ec819b66218c64911b87eb1e29c1e3ce9f6d1f4a30b463db13e9090960405160405180910390a2505050505050565b600180600381111561144e5761144d61325c565b5b5f60149054906101000a900460ff16600381111561146f5761146e61325c565b5b146114af576040517f08c379a00000000000000000000000000000000000000000000000000000000081526004016114a690613cfc565b60405180910390fd5b6001544211156114f4576040517f08c379a00000000000000000000000000000000000000000000000000000000081526004016114eb9061416a565b60405180910390fd5b600454600a5f3373ffffffffffffffffffffffffffffffffffffffff1673ffffffffffffffffffffffffffffffffffffffff1681526020019081526020015f205403611575576040517f08c379a000000000000000000000000000000000000000000000000000000000815260040161156c906141d2565b60405180910390fd5b5f3389898960405160200161158d94939291906142c1565b6040516020818303038152906040528051906020012090506115f28484808060200260200160405190810160405280939291908181526020018383602002808284375f81840152601f19601f8201169050808301925050505050505060065483612875565b611631576040517f08c379a000000000000000000000000000000000000000000000000000000000815260040161162890614354565b60405180910390fd5b5f60028111156116445761164361325c565b5b8560028111156116575761165661325c565b5b036116a75760048860ff16146116a2576040517f08c379a0000000000000000000000000000000000000000000000000000000008152600401611699906143bc565b60405180910390fd5b61172c565b600160028111156116bb576116ba61325c565b5b8560028111156116ce576116cd61325c565b5b0361172b5760038860ff16101580156116eb575060048860ff1611155b61172a576040517f08c379a00000000000000000000000000000000000000000000000000000000081526004016117219061444a565b60405180910390fd5b5b5b60035f81548092919061173e90613daf565b919050555060405180610120016040528060035481526020018a81526020018b81526020018960ff168152602001881515815260200187815260200186600281111561178d5761178c61325c565b5b81526020015f81526020016001151581525060085f60035481526020019081526020015f205f820151815f015560208201518160010190816117cf9190614539565b5060408201518160020190816117e59190614539565b506060820151816003015f6101000a81548160ff021916908360ff16021790555060808201518160030160016101000a81548160ff02191690831515021790555060a082015181600401908161183b9190614539565b5060c0820151816005015f6101000a81548160ff021916908360028111156118665761186561325c565b5b021790555060e08201518160060155610100820151816007015f6101000a81548160ff021916908315150217905550905050600454600a5f3373ffffffffffffffffffffffffffffffffffffffff1673ffffffffffffffffffffffffffffffffffffffff1681526020019081526020015f20819055503373ffffffffffffffffffffffffffffffffffffffff166003547ff721a4e933ede8c3537b58861216e9cd34966866a9c0a3d102bd8294fd8c37f88b888a60405161192993929190614608565b60405180910390a350505050505050505050565b5f5f9054906101000a900473ffffffffffffffffffffffffffffffffffffffff1673ffffffffffffffffffffffffffffffffffffffff163373ffffffffffffffffffffffffffffffffffffffff16146119cb576040517f08c379a00000000000000000000000000000000000000000000000000000000081526004016119c290613a97565b60405180910390fd5b600260038111156119df576119de61325c565b5b5f60149054906101000a900460ff166003811115611a00576119ff61325c565b5b14611a40576040517f08c379a0000000000000000000000000000000000000000000000000000000008152600401611a3790614695565b60405180910390fd5b600254421015611a85576040517f08c379a0000000000000000000000000000000000000000000000000000000008152600401611a7c906146fd565b60405180910390fd5b60035f60146101000a81548160ff02191690836003811115611aaa57611aa961325c565b5b02179055507fa6dcc92f45df25789d5639b7a0c97ba1edf3bb1c0b5dd3376fd96a0db87c46426003604051611adf919061395a565b60405180910390a1565b5f5f9054906101000a900473ffffffffffffffffffffffffffffffffffffffff1673ffffffffffffffffffffffffffffffffffffffff163373ffffffffffffffffffffffffffffffffffffffff1614611b77576040517f08c379a0000000000000000000000000000000000000000000000000000000008152600401611b6e90613a97565b60405180910390fd5b806006819055507f152210672c2549e6214d76c4c341f316ffeefdc783b6845dbf1a3330ed3d120481604051611bad91906131b8565b60405180910390a150565b6009602052805f5260405f205f915090505481565b5f5f9054906101000a900473ffffffffffffffffffffffffffffffffffffffff1673ffffffffffffffffffffffffffffffffffffffff163373ffffffffffffffffffffffffffffffffffffffff1614611c5b576040517f08c379a0000000000000000000000000000000000000000000000000000000008152600401611c5290613a97565b60405180910390fd5b806005819055507f90004c04698bc3322499a575ed3752dd4abf33e0a7294c06a787a0fe01bea94181604051611c9191906131b8565b60405180910390a150565b60025481565b60065481565b60045481565b600581565b60035481565b6002806003811115611cce57611ccd61325c565b5b5f60149054906101000a900460ff166003811115611cef57611cee61325c565b5b14611d2f576040517f08c379a0000000000000000000000000000000000000000000000000000000008152600401611d2690613cfc565b60405180910390fd5b600254421115611d74576040517f08c379a0000000000000000000000000000000000000000000000000000000008152600401611d6b90614765565b60405180910390fd5b60045460095f3373ffffffffffffffffffffffffffffffffffffffff1673ffffffffffffffffffffffffffffffffffffffff1681526020019081526020015f205403611df5576040517f08c379a0000000000000000000000000000000000000000000000000000000008152600401611dec906147cd565b60405180910390fd5b5f33604051602001611e0791906147eb565b604051602081830303815290604052805190602001209050611e6c8484808060200260200160405190810160405280939291908181526020018383602002808284375f81840152601f19601f8201169050808301925050505050505060055483612875565b611eab576040517f08c379a0000000000000000000000000000000000000000000000000000000008152600401611ea29061484f565b60405180910390fd5b5f5f891115611fce575f60085f8b81526020019081526020015f209050806007015f9054906101000a900460ff168015611f1857505f6002811115611ef357611ef261325c565b5b816005015f9054906101000a900460ff166002811115611f1657611f1561325c565b5b145b611f57576040517f08c379a0000000000000000000000000000000000000000000000000000000008152600401611f4e906148b7565b60405180910390fd5b806006015f815480929190611f6b90613daf565b91905055503373ffffffffffffffffffffffffffffffffffffffff167fa36cc2bebb74db33e9f88110a07ef56e1b31b24b4c4f51b54b1664266e29f45b8b604051611fb69190612ea5565b60405180910390a28180611fc990613daf565b925050505b5f8811156120f1575f60085f8a81526020019081526020015f209050806007015f9054906101000a900460ff16801561203b5750600160028111156120165761201561325c565b5b816005015f9054906101000a900460ff1660028111156120395761203861325c565b5b145b61207a576040517f08c379a00000000000000000000000000000000000000000000000000000000081526004016120719061491f565b60405180910390fd5b806006015f81548092919061208e90613daf565b91905055503373ffffffffffffffffffffffffffffffffffffffff167fa36cc2bebb74db33e9f88110a07ef56e1b31b24b4c4f51b54b1664266e29f45b8a6040516120d99190612ea5565b60405180910390a281806120ec90613daf565b925050505b6005878790501115612138576040517f08c379a000000000000000000000000000000000000000000000000000000000815260040161212f90614987565b60405180910390fd5b5f5f5f90505b888890508110156122f5575f89898381811061215d5761215c6149a5565b5b9050602002013590505f81116121a8576040517f08c379a000000000000000000000000000000000000000000000000000000000815260040161219f90614a1c565b60405180910390fd5b5f60085f8381526020019081526020015f209050806007015f9054906101000a900460ff16801561220c57506002808111156121e7576121e661325c565b5b816005015f9054906101000a900460ff16600281111561220a5761220961325c565b5b145b61224b576040517f08c379a000000000000000000000000000000000000000000000000000000000815260040161224290614a84565b60405180910390fd5b8060030160019054906101000a900460ff161561227157838061226d90613daf565b9450505b806006015f81548092919061228590613daf565b91905055503373ffffffffffffffffffffffffffffffffffffffff167fa36cc2bebb74db33e9f88110a07ef56e1b31b24b4c4f51b54b1664266e29f45b836040516122d09190612ea5565b60405180910390a284806122e390613daf565b9550505050808060010191505061213e565b505f888890501115612346576002811015612345576040517f08c379a000000000000000000000000000000000000000000000000000000000815260040161233c90614aec565b60405180910390fd5b5b5f8211612388576040517f08c379a000000000000000000000000000000000000000000000000000000000815260040161237f90614b54565b60405180910390fd5b60045460095f3373ffffffffffffffffffffffffffffffffffffffff1673ffffffffffffffffffffffffffffffffffffffff1681526020019081526020015f20819055503373ffffffffffffffffffffffffffffffffffffffff167fe3247bcd60937953a15c7fb3f0105170d7589290d64b69172eb927ca5e24bc8b8b8b8b8b6040516124189493929190614bea565b60405180910390a250505050505050505050565b5f5f9054906101000a900473ffffffffffffffffffffffffffffffffffffffff1673ffffffffffffffffffffffffffffffffffffffff163373ffffffffffffffffffffffffffffffffffffffff16146124ba576040517f08c379a00000000000000000000000000000000000000000000000000000000081526004016124b190613a97565b60405180910390fd5b806007819055507f97edeb41bfc357741272434936194103aa9f69d8c8f92536485fdb27d5c75724816040516124f091906131b8565b60405180910390a150565b5f60149054906101000a900460ff1681565b600a602052805f5260405f205f915090505481565b60075481565b5f5f60149054906101000a900460ff16905090565b5f5f9054906101000a900473ffffffffffffffffffffffffffffffffffffffff1681565b60028060038111156125765761257561325c565b5b5f60149054906101000a900460ff1660038111156125975761259661325c565b5b146125d7576040517f08c379a00000000000000000000000000000000000000000000000000000000081526004016125ce90613cfc565b60405180910390fd5b60025442111561261c576040517f08c379a000000000000000000000000000000000000000000000000000000000815260040161261390614765565b60405180910390fd5b60045460095f3373ffffffffffffffffffffffffffffffffffffffff1673ffffffffffffffffffffffffffffffffffffffff1681526020019081526020015f20540361269d576040517f08c379a0000000000000000000000000000000000000000000000000000000008152600401612694906147cd565b60405180910390fd5b60085f8581526020019081526020015f206007015f9054906101000a900460ff166126fd576040517f08c379a00000000000000000000000000000000000000000000000000000000081526004016126f490614c72565b60405180910390fd5b5f3360405160200161270f91906147eb565b6040516020818303038152906040528051906020012090506127748484808060200260200160405190810160405280939291908181526020018383602002808284375f81840152601f19601f8201169050808301925050505050505060055483612875565b6127b3576040517f08c379a00000000000000000000000000000000000000000000000000000000081526004016127aa9061484f565b60405180910390fd5b60045460095f3373ffffffffffffffffffffffffffffffffffffffff1673ffffffffffffffffffffffffffffffffffffffff1681526020019081526020015f208190555060085f8681526020019081526020015f206006015f81548092919061281b90613daf565b91905055503373ffffffffffffffffffffffffffffffffffffffff167fa36cc2bebb74db33e9f88110a07ef56e1b31b24b4c4f51b54b1664266e29f45b866040516128669190612ea5565b60405180910390a25050505050565b5f826128818584612c83565b1490509392505050565b5f5f5f600190505b6003548111612961575f60085f8381526020019081526020015f209050806007015f9054906101000a900460ff16158061290157508460028111156128db576128da61325c565b5b816005015f9054906101000a900460ff1660028111156128fe576128fd61325c565b5b14155b1561290c575061294e565b8281600601541180612939575082816006015414801561293857505f841480612937575083815f0154105b5b5b1561294c5780600601549250805f015493505b505b808061295990613daf565b915050612893565b5050919050565b612970612da2565b5f5f5f90505b6002811015612b04575f5f5f600190505b6003548111612ac3575f60085f8381526020019081526020015f209050806007015f9054906101000a900460ff1615806129f557506002808111156129cf576129ce61325c565b5b816005015f9054906101000a900460ff1660028111156129f2576129f161325c565b5b14155b80612a0f57508060030160019054906101000a900460ff16155b15612a1a5750612ab0565b5f5f5f90505b87811015612a5f57825f0154898260058110612a3f57612a3e6149a5565b5b602002015103612a525760019150612a5f565b8080600101915050612a20565b508015612a6d575050612ab0565b8382600601541180612a9a5750838260060154148015612a9957505f851480612a98575084825f0154105b5b5b15612aad5781600601549350815f015494505b50505b8080612abb90613daf565b915050612987565b505f8214612af55781858580612ad890613daf565b965060058110612aeb57612aea6149a5565b5b6020020181815250505b50508080600101915050612976565b505f5f90505b6003811015612c7e575f5f5f600190505b6003548111612c3d575f60085f8381526020019081526020015f209050806007015f9054906101000a900460ff161580612b895750600280811115612b6357612b6261325c565b5b816005015f9054906101000a900460ff166002811115612b8657612b8561325c565b5b14155b15612b945750612c2a565b5f5f5f90505b87811015612bd957825f0154898260058110612bb957612bb86149a5565b5b602002015103612bcc5760019150612bd9565b8080600101915050612b9a565b508015612be7575050612c2a565b8382600601541180612c145750838260060154148015612c1357505f851480612c12575084825f0154105b5b5b15612c275781600601549350815f015494505b50505b8080612c3590613daf565b915050612b1b565b505f8214612c6f5781858580612c5290613daf565b965060058110612c6557612c646149a5565b5b6020020181815250505b50508080600101915050612b0a565b505090565b5f5f8290505f5f90505b8451811015612cc957612cba82868381518110612cad57612cac6149a5565b5b6020026020010151612cd4565b91508080600101915050612c8d565b508091505092915050565b5f818310612ceb57612ce68284612cfe565b612cf6565b612cf58383612cfe565b5b905092915050565b5f825f528160205260405f20905092915050565b6040518060a001604052805f81526020015f8152602001612d31612da2565b81526020015f81526020015f81525090565b6040518061012001604052805f815260200160608152602001606081526020015f60ff1681526020015f15158152602001606081526020015f6002811115612d8e57612d8d61325c565b5b81526020015f81526020015f151581525090565b6040518060a00160405280600590602082028036833780820191505090505090565b5f604051905090565b5f5ffd5b5f5ffd5b5f73ffffffffffffffffffffffffffffffffffffffff82169050919050565b5f612dfe82612dd5565b9050919050565b612e0e81612df4565b8114612e18575f5ffd5b50565b5f81359050612e2981612e05565b92915050565b5f60208284031215612e4457612e43612dcd565b5b5f612e5184828501612e1b565b91505092915050565b5f8115159050919050565b612e6e81612e5a565b82525050565b5f602082019050612e875f830184612e65565b92915050565b5f819050919050565b612e9f81612e8d565b82525050565b5f602082019050612eb85f830184612e96565b92915050565b5f5ffd5b5f5ffd5b5f5ffd5b5f5f83601f840112612edf57612ede612ebe565b5b8235905067ffffffffffffffff811115612efc57612efb612ec2565b5b602083019150836001820283011115612f1857612f17612ec6565b5b9250929050565b5f5f83601f840112612f3457612f33612ebe565b5b8235905067ffffffffffffffff811115612f5157612f50612ec2565b5b602083019150836020820283011115612f6d57612f6c612ec6565b5b9250929050565b5f5f5f5f5f5f60608789031215612f8e57612f8d612dcd565b5b5f87013567ffffffffffffffff811115612fab57612faa612dd1565b5b612fb789828a01612eca565b9650965050602087013567ffffffffffffffff811115612fda57612fd9612dd1565b5b612fe689828a01612eca565b9450945050604087013567ffffffffffffffff81111561300957613008612dd1565b5b61301589828a01612f1f565b92509250509295509295509295565b61302d81612e8d565b8114613037575f5ffd5b50565b5f8135905061304881613024565b92915050565b5f6020828403121561306357613062612dcd565b5b5f6130708482850161303a565b91505092915050565b61308281612e8d565b82525050565b5f60059050919050565b5f81905092915050565b5f819050919050565b5f6130b08383613079565b60208301905092915050565b5f602082019050919050565b6130d181613088565b6130db8184613092565b92506130e68261309c565b805f5b838110156131165781516130fd87826130a5565b9650613108836130bc565b9250506001810190506130e9565b505050505050565b61012082015f8201516131335f850182613079565b5060208201516131466020850182613079565b50604082015161315960408501826130c8565b50606082015161316c60e0850182613079565b506080820151613180610100850182613079565b50505050565b5f6101208201905061319a5f83018461311e565b92915050565b5f819050919050565b6131b2816131a0565b82525050565b5f6020820190506131cb5f8301846131a9565b92915050565b5f81519050919050565b5f82825260208201905092915050565b8281835e5f83830152505050565b5f601f19601f8301169050919050565b5f613213826131d1565b61321d81856131db565b935061322d8185602086016131eb565b613236816131f9565b840191505092915050565b5f60ff82169050919050565b61325681613241565b82525050565b7f4e487b71000000000000000000000000000000000000000000000000000000005f52602160045260245ffd5b6003811061329a5761329961325c565b5b50565b5f8190506132aa82613289565b919050565b5f6132b98261329d565b9050919050565b6132c9816132af565b82525050565b5f610120820190506132e35f83018c612e96565b81810360208301526132f5818b613209565b90508181036040830152613309818a613209565b9050613318606083018961324d565b6133256080830188612e65565b81810360a08301526133378187613209565b905061334660c08301866132c0565b61335360e0830185612e96565b613361610100830184612e65565b9a9950505050505050505050565b5f82825260208201905092915050565b5f613389826131d1565b613393818561336f565b93506133a38185602086016131eb565b6133ac816131f9565b840191505092915050565b6133c081613241565b82525050565b6133cf81612e5a565b82525050565b6133de816132af565b82525050565b5f61012083015f8301516133fa5f860182613079565b5060208301518482036020860152613412828261337f565b9150506040830151848203604086015261342c828261337f565b915050606083015161344160608601826133b7565b50608083015161345460808601826133c6565b5060a083015184820360a086015261346c828261337f565b91505060c083015161348160c08601826133d5565b5060e083015161349460e0860182613079565b506101008301516134a96101008601826133c6565b508091505092915050565b5f6020820190508181035f8301526134cc81846133e4565b905092915050565b5f6080820190506134e75f830187612e96565b6134f46020830186612e96565b6135016040830185612e96565b61350e6060830184612e96565b95945050505050565b5f5ffd5b7f4e487b71000000000000000000000000000000000000000000000000000000005f52604160045260245ffd5b613551826131f9565b810181811067ffffffffffffffff821117156135705761356f61351b565b5b80604052505050565b5f613582612dc4565b905061358e8282613548565b919050565b5f67ffffffffffffffff8211156135ad576135ac61351b565b5b6135b6826131f9565b9050602081019050919050565b828183375f83830152505050565b5f6135e36135de84613593565b613579565b9050828152602081018484840111156135ff576135fe613517565b5b61360a8482856135c3565b509392505050565b5f82601f83011261362657613625612ebe565b5b81356136368482602086016135d1565b91505092915050565b61364881613241565b8114613652575f5ffd5b50565b5f813590506136638161363f565b92915050565b61367281612e5a565b811461367c575f5ffd5b50565b5f8135905061368d81613669565b92915050565b6003811061369f575f5ffd5b50565b5f813590506136b081613693565b92915050565b5f5f5f5f5f5f5f5f60e0898b0312156136d2576136d1612dcd565b5b5f89013567ffffffffffffffff8111156136ef576136ee612dd1565b5b6136fb8b828c01613612565b985050602089013567ffffffffffffffff81111561371c5761371b612dd1565b5b6137288b828c01613612565b97505060406137398b828c01613655565b965050606061374a8b828c0161367f565b955050608089013567ffffffffffffffff81111561376b5761376a612dd1565b5b6137778b828c01613612565b94505060a06137888b828c016136a2565b93505060c089013567ffffffffffffffff8111156137a9576137a8612dd1565b5b6137b58b828c01612f1f565b92509250509295985092959890939650565b6137d0816131a0565b81146137da575f5ffd5b50565b5f813590506137eb816137c7565b92915050565b5f6020828403121561380657613805612dcd565b5b5f613813848285016137dd565b91505092915050565b5f5f83601f84011261383157613830612ebe565b5b8235905067ffffffffffffffff81111561384e5761384d612ec2565b5b60208301915083602082028301111561386a57613869612ec6565b5b9250929050565b5f5f5f5f5f5f6080878903121561388b5761388a612dcd565b5b5f61389889828a0161303a565b96505060206138a989828a0161303a565b955050604087013567ffffffffffffffff8111156138ca576138c9612dd1565b5b6138d689828a0161381c565b9450945050606087013567ffffffffffffffff8111156138f9576138f8612dd1565b5b61390589828a01612f1f565b92509250509295509295509295565b600481106139255761392461325c565b5b50565b5f81905061393582613914565b919050565b5f61394482613928565b9050919050565b6139548161393a565b82525050565b5f60208201905061396d5f83018461394b565b92915050565b61397c81612df4565b82525050565b5f6020820190506139955f830184613973565b92915050565b5f5f5f604084860312156139b2576139b1612dcd565b5b5f6139bf8682870161303a565b935050602084013567ffffffffffffffff8111156139e0576139df612dd1565b5b6139ec86828701612f1f565b92509250509250925092565b5f81905092915050565b5f613a0d83856139f8565b9350613a1a8385846135c3565b82840190509392505050565b5f613a32828688613a02565b9150613a3f828486613a02565b915081905095945050505050565b7f4e6f742061646d696e00000000000000000000000000000000000000000000005f82015250565b5f613a816009836131db565b9150613a8c82613a4d565b602082019050919050565b5f6020820190508181035f830152613aae81613a75565b9050919050565b7f496e76616c6964207068617365000000000000000000000000000000000000005f82015250565b5f613ae9600d836131db565b9150613af482613ab5565b602082019050919050565b5f6020820190508181035f830152613b1681613add565b9050919050565b7f456e64206d75737420626520696e2066757475726500000000000000000000005f82015250565b5f613b516015836131db565b9150613b5c82613b1d565b602082019050919050565b5f6020820190508181035f830152613b7e81613b45565b9050919050565b7f4e487b71000000000000000000000000000000000000000000000000000000005f52602260045260245ffd5b5f6002820490506001821680613bc957607f821691505b602082108103613bdc57613bdb613b85565b5b50919050565b7f4e6f7420726561647900000000000000000000000000000000000000000000005f82015250565b5f613c166009836131db565b9150613c2182613be2565b602082019050919050565b5f6020820190508181035f830152613c4381613c0a565b9050919050565b7f526567697374726174696f6e20706572696f64206e6f74206f766572000000005f82015250565b5f613c7e601c836131db565b9150613c8982613c4a565b602082019050919050565b5f6020820190508181035f830152613cab81613c72565b9050919050565b7f57726f6e672070686173650000000000000000000000000000000000000000005f82015250565b5f613ce6600b836131db565b9150613cf182613cb2565b602082019050919050565b5f6020820190508181035f830152613d1381613cda565b9050919050565b7f4e6f2063616e64696461746573000000000000000000000000000000000000005f82015250565b5f613d4e600d836131db565b9150613d5982613d1a565b602082019050919050565b5f6020820190508181035f830152613d7b81613d42565b9050919050565b7f4e487b71000000000000000000000000000000000000000000000000000000005f52601160045260245ffd5b5f613db982612e8d565b91507fffffffffffffffffffffffffffffffffffffffffffffffffffffffffffffffff8203613deb57613dea613d82565b5b600182019050919050565b7f4e656564206174206c65617374203520474d2063616e646964617465730000005f82015250565b5f613e2a601d836131db565b9150613e3582613df6565b602082019050919050565b5f6020820190508181035f830152613e5781613e1e565b9050919050565b7f4e656564206174206c6561737420322066656d616c6520474d2063616e6469645f8201527f6174657300000000000000000000000000000000000000000000000000000000602082015250565b5f613eb86024836131db565b9150613ec382613e5e565b604082019050919050565b5f6020820190508181035f830152613ee581613eac565b9050919050565b5f60059050919050565b5f8190506001806001038301049050919050565b5f819050919050565b5f82821b905092915050565b5f60088302613f4e7fffffffffffffffffffffffffffffffffffffffffffffffffffffffffffffffff82613f13565b613f588683613f13565b95508019841693508086168417925050509392505050565b5f819050919050565b5f613f93613f8e613f8984612e8d565b613f70565b612e8d565b9050919050565b5f819050919050565b613fac83613f79565b613fc0613fb882613f9a565b848454613f1f565b825550505050565b5f5f905090565b613fd7613fc8565b613fe2818484613fa3565b505050565b5f5b8281101561400857613ffd5f828401613fcf565b600181019050613fe9565b505050565b5f82821c905092915050565b818310156140505761402a82613ef6565b61403384613ef6565b61403c83613f0a565b81810161404b83850382613fe7565b505050505b505050565b6801000000000000000082111561406f5761406e61351b565b5b61407881613eec565b614083838284614019565b505050565b5f6140938251612e8d565b80915050919050565b6140a582613088565b67ffffffffffffffff8111156140be576140bd61351b565b5b6140c88183614055565b6140d18361309c565b6140da83613f0a565b600183045f5b81811015614117575f6140f285614088565b6140fb81613f9a565b80925060208701965050508082850155506001810190506140e0565b50505050505050565b7f526567697374726174696f6e20656e64656400000000000000000000000000005f82015250565b5f6141546012836131db565b915061415f82614120565b602082019050919050565b5f6020820190508181035f83015261418181614148565b9050919050565b7f416c7265616479207265676973746572656400000000000000000000000000005f82015250565b5f6141bc6012836131db565b91506141c782614188565b602082019050919050565b5f6020820190508181035f8301526141e9816141b0565b9050919050565b5f8160601b9050919050565b5f614206826141f0565b9050919050565b5f614217826141fc565b9050919050565b61422f61422a82612df4565b61420d565b82525050565b5f61423f826131d1565b61424981856139f8565b93506142598185602086016131eb565b80840191505092915050565b5f8160f81b9050919050565b5f61427b82614265565b9050919050565b61429361428e82613241565b614271565b82525050565b5f6142a382614271565b9050919050565b6142bb6142b682612e5a565b614299565b82525050565b5f6142cc828761421e565b6014820191506142dc8286614235565b91506142e88285614282565b6001820191506142f882846142aa565b60018201915081905095945050505050565b7f4964656e74697479206e6f7420766572696669656400000000000000000000005f82015250565b5f61433e6015836131db565b91506143498261430a565b602082019050919050565b5f6020820190508181035f83015261436b81614332565b9050919050565b7f507265736964656e74206d7573742062652034746820796561720000000000005f82015250565b5f6143a6601a836131db565b91506143b182614372565b602082019050919050565b5f6020820190508181035f8301526143d38161439a565b9050919050565b7f536563726574617279206d75737420626520337264206f7220347468207965615f8201527f7200000000000000000000000000000000000000000000000000000000000000602082015250565b5f6144346021836131db565b915061443f826143da565b604082019050919050565b5f6020820190508181035f83015261446181614428565b9050919050565b5f819050815f5260205f209050919050565b5f6020601f8301049050919050565b5f5b828110156144aa5761449f5f828401613fcf565b60018101905061448b565b505050565b601f8211156144fd57828211156144fc576144c981614468565b6144d28361447a565b6144db8561447a565b60208610156144e8575f90505b8083016144f782840382614489565b505050505b5b505050565b5f6145115f198460080261400d565b1980831691505092915050565b5f6145298383614502565b9150826002028217905092915050565b614542826131d1565b67ffffffffffffffff81111561455b5761455a61351b565b5b6145658254613bb2565b6145708282856144af565b5f60209050601f8311600181146145a1575f841561458f578287015190505b614599858261451e565b865550614600565b601f1984166145af86614468565b5f5b828110156145d6578489015182556001820191506020850194506020810190506145b1565b868310156145f357848901516145ef601f891682614502565b8355505b6001600288020188555050505b505050505050565b5f6060820190508181035f8301526146208186613209565b905061462f60208301856132c0565b81810360408301526146418184613209565b9050949350505050565b7f4e6f7420696e20766f74696e67000000000000000000000000000000000000005f82015250565b5f61467f600d836131db565b915061468a8261464b565b602082019050919050565b5f6020820190508181035f8301526146ac81614673565b9050919050565b7f566f74696e6720706572696f64206e6f74206f766572000000000000000000005f82015250565b5f6146e76016836131db565b91506146f2826146b3565b602082019050919050565b5f6020820190508181035f830152614714816146db565b9050919050565b7f566f74696e6720656e64656400000000000000000000000000000000000000005f82015250565b5f61474f600c836131db565b915061475a8261471b565b602082019050919050565b5f6020820190508181035f83015261477c81614743565b9050919050565b7f416c726561647920766f746564000000000000000000000000000000000000005f82015250565b5f6147b7600d836131db565b91506147c282614783565b602082019050919050565b5f6020820190508181035f8301526147e4816147ab565b9050919050565b5f6147f6828461421e565b60148201915081905092915050565b7f4e6f7420656c696769626c6520766f74657200000000000000000000000000005f82015250565b5f6148396012836131db565b915061484482614805565b602082019050919050565b5f6020820190508181035f8301526148668161482d565b9050919050565b7f496e76616c696420707265736964656e740000000000000000000000000000005f82015250565b5f6148a16011836131db565b91506148ac8261486d565b602082019050919050565b5f6020820190508181035f8301526148ce81614895565b9050919050565b7f496e76616c6964207365637265746172790000000000000000000000000000005f82015250565b5f6149096011836131db565b9150614914826148d5565b602082019050919050565b5f6020820190508181035f830152614936816148fd565b9050919050565b7f546f6f206d616e7920474d20766f7465730000000000000000000000000000005f82015250565b5f6149716011836131db565b915061497c8261493d565b602082019050919050565b5f6020820190508181035f83015261499e81614965565b9050919050565b7f4e487b71000000000000000000000000000000000000000000000000000000005f52603260045260245ffd5b7f496e76616c696420474d204944000000000000000000000000000000000000005f82015250565b5f614a06600d836131db565b9150614a11826149d2565b602082019050919050565b5f6020820190508181035f830152614a33816149fa565b9050919050565b7f496e76616c696420474d000000000000000000000000000000000000000000005f82015250565b5f614a6e600a836131db565b9150614a7982614a3a565b602082019050919050565b5f6020820190508181035f830152614a9b81614a62565b9050919050565b7f4e656564206174206c6561737420322066656d616c6520474d20766f746573005f82015250565b5f614ad6601f836131db565b9150614ae182614aa2565b602082019050919050565b5f6020820190508181035f830152614b0381614aca565b9050919050565b7f4e6f2063616e646964617465732073656c6563746564000000000000000000005f82015250565b5f614b3e6016836131db565b9150614b4982614b0a565b602082019050919050565b5f6020820190508181035f830152614b6b81614b32565b9050919050565b5f82825260208201905092915050565b5f5ffd5b82818337505050565b5f614b9a8385614b72565b93507f07ffffffffffffffffffffffffffffffffffffffffffffffffffffffffffffff831115614bcd57614bcc614b82565b5b602083029250614bde838584614b86565b82840190509392505050565b5f606082019050614bfd5f830187612e96565b614c0a6020830186612e96565b8181036040830152614c1d818486614b8f565b905095945050505050565b7f496e76616c69642063616e6469646174650000000000000000000000000000005f82015250565b5f614c5c6011836131db565b9150614c6782614c28565b602082019050919050565b5f6020820190508181035f830152614c8981614c50565b905091905056fea2646970667358221220ccc8f5914e0b779c25736f2826f348f0163e41b8ad64b2919c65721d5b31700764736f6c63430008230033","linkReferences":{}},"methodIdentifiers":{"GENERAL_MEMBERS_ELECTED()":"9e225d84","admin()":"f851a440","candidateCount()":"a9a981a3","candidateRegisteredInElection(address)":"c27a58aa","candidates(uint256)":"3477ee2e","castVote(uint256,uint256,uint256[],bytes32[])":"acf46e82","currentElectionId()":"98ecf2a0","electionHistory(uint256)":"35da4271","endElection()":"59f78468","getCandidate(uint256)":"35b8e820","getElectionResult(uint256)":"23fc4b36","getPhase()":"eced0280","hasVoted(address)":"09eef43e","historyCount()":"3a9c9ffc","identityMerkleRoot()":"8cb1b354","phase()":"b1c9fe6e","regCodeMerkleRoot()":"d2cd0a75","registerCandidate(string,string,uint8,bool,string,uint8,bytes32[])":"58e930c8","registrationEnd()":"13446a75","setIdentityMerkleRoot(bytes32)":"6e38d032","setMerkleRoot(bytes32)":"7cb64759","setRegCodeMerkleRoot(bytes32)":"ae4924dd","startNewElection()":"47f33fb5","startRegistration(uint256)":"2ed1f9b5","startVoting(uint256)":"3d2f5bda","verifyRegCode(string,string,bytes32[])":"185c7db1","vote(uint256,bytes32[])":"fd27419b","votedInElection(address)":"797dd1f2","voterMerkleRoot()":"2a69fb46","votingEnd()":"85a38635"},"id":23}